{
	"ZombieAttack.sol": {
		"ZombieAttack": {
			"abi": [
				{
					"constant": true,
					"inputs": [
						{
							"name": "",
							"type": "address"
						}
					],
					"name": "ownerZombieCount",
					"outputs": [
						{
							"name": "",
							"type": "uint256"
						}
					],
					"payable": false,
					"stateMutability": "view",
					"type": "function"
				},
				{
					"constant": false,
					"inputs": [
						{
							"name": "_zombieId",
							"type": "uint256"
						}
					],
					"name": "levelUp",
					"outputs": [],
					"payable": true,
					"stateMutability": "payable",
					"type": "function"
				},
				{
					"constant": true,
					"inputs": [
						{
							"name": "",
							"type": "uint256"
						}
					],
					"name": "zombies",
					"outputs": [
						{
							"name": "dna",
							"type": "uint256"
						},
						{
							"name": "level",
							"type": "uint32"
						},
						{
							"name": "readyTime",
							"type": "uint32"
						},
						{
							"name": "winCount",
							"type": "uint32"
						},
						{
							"name": "lossCount",
							"type": "uint32"
						},
						{
							"name": "name",
							"type": "string"
						}
					],
					"payable": false,
					"stateMutability": "view",
					"type": "function"
				},
				{
					"constant": false,
					"inputs": [],
					"name": "withdraw",
					"outputs": [],
					"payable": false,
					"stateMutability": "nonpayable",
					"type": "function"
				},
				{
					"constant": true,
					"inputs": [
						{
							"name": "_owner",
							"type": "address"
						}
					],
					"name": "getZombiesByOwner",
					"outputs": [
						{
							"name": "",
							"type": "uint256[]"
						}
					],
					"payable": false,
					"stateMutability": "view",
					"type": "function"
				},
				{
					"constant": true,
					"inputs": [
						{
							"name": "",
							"type": "uint256"
						}
					],
					"name": "zombieToOwner",
					"outputs": [
						{
							"name": "",
							"type": "address"
						}
					],
					"payable": false,
					"stateMutability": "view",
					"type": "function"
				},
				{
					"constant": false,
					"inputs": [
						{
							"name": "_zombieId",
							"type": "uint256"
						},
						{
							"name": "_newDna",
							"type": "uint256"
						}
					],
					"name": "changeDna",
					"outputs": [],
					"payable": false,
					"stateMutability": "nonpayable",
					"type": "function"
				},
				{
					"constant": false,
					"inputs": [
						{
							"name": "_name",
							"type": "string"
						}
					],
					"name": "createRandomZombie",
					"outputs": [],
					"payable": false,
					"stateMutability": "nonpayable",
					"type": "function"
				},
				{
					"constant": true,
					"inputs": [],
					"name": "owner",
					"outputs": [
						{
							"name": "",
							"type": "address"
						}
					],
					"payable": false,
					"stateMutability": "view",
					"type": "function"
				},
				{
					"constant": false,
					"inputs": [
						{
							"name": "attackerId",
							"type": "uint256"
						},
						{
							"name": "defenderId",
							"type": "uint256"
						}
					],
					"name": "doAttack",
					"outputs": [],
					"payable": false,
					"stateMutability": "nonpayable",
					"type": "function"
				},
				{
					"constant": false,
					"inputs": [
						{
							"name": "_zombieId",
							"type": "uint256"
						},
						{
							"name": "_newName",
							"type": "string"
						}
					],
					"name": "changeName",
					"outputs": [],
					"payable": false,
					"stateMutability": "nonpayable",
					"type": "function"
				},
				{
					"constant": false,
					"inputs": [
						{
							"name": "_fee",
							"type": "uint256"
						}
					],
					"name": "setLevelUpFee",
					"outputs": [],
					"payable": false,
					"stateMutability": "nonpayable",
					"type": "function"
				},
				{
					"constant": false,
					"inputs": [
						{
							"name": "newOwner",
							"type": "address"
						}
					],
					"name": "transferOwnership",
					"outputs": [],
					"payable": false,
					"stateMutability": "nonpayable",
					"type": "function"
				},
				{
					"constant": false,
					"inputs": [
						{
							"name": "_zombieId",
							"type": "uint256"
						},
						{
							"name": "_humanId",
							"type": "uint256"
						}
					],
					"name": "feedOnHuman",
					"outputs": [],
					"payable": false,
					"stateMutability": "nonpayable",
					"type": "function"
				},
				{
					"anonymous": false,
					"inputs": [
						{
							"indexed": false,
							"name": "zombieId",
							"type": "uint256"
						},
						{
							"indexed": false,
							"name": "name",
							"type": "string"
						},
						{
							"indexed": false,
							"name": "dna",
							"type": "uint256"
						}
					],
					"name": "NewZombie",
					"type": "event"
				},
				{
					"anonymous": false,
					"inputs": [
						{
							"indexed": true,
							"name": "previousOwner",
							"type": "address"
						},
						{
							"indexed": true,
							"name": "newOwner",
							"type": "address"
						}
					],
					"name": "OwnershipTransferred",
					"type": "event"
				}
			],
			"devdoc": {
				"methods": {
					"transferOwnership(address)": {
						"details": "Allows the current owner to transfer control of the contract to a newOwner.",
						"params": {
							"newOwner": "The address to transfer ownership to."
						}
					}
				}
			},
			"evm": {
				"assembly": "    /* \"ZombieAttack.sol\":89:905  contract ZombieAttack is ZombieHelper {... */\n  mstore(0x40, 0x80)\n    /* \"ZombieFactory.sol\":107:109  16 */\n  0x10\n    /* \"ZombieFactory.sol\":90:109  uint dnaDigits = 16 */\n  0x1\n  sstore\n    /* \"ZombieFactory.sol\":139:148  dnaDigits */\n  sload(0x1)\n    /* \"ZombieFactory.sol\":133:135  10 */\n  0xa\n    /* \"ZombieFactory.sol\":133:148  10 ** dnaDigits */\n  exp\n    /* \"ZombieFactory.sol\":115:148  uint dnaModulus = 10 ** dnaDigits */\n  0x2\n  sstore\n    /* \"ZombieFactory.sol\":386:388  60 */\n  0x3c\n    /* \"ZombieFactory.sol\":366:388  uint cooldownTime = 60 */\n  0x4\n  sstore\n    /* \"ZombieHelper.sol\":246:257  0.001 ether */\n  0x38d7ea4c68000\n    /* \"ZombieHelper.sol\":228:257  uint levelUpFee = 0.001 ether */\n  0x7\n  sstore\n    /* \"ZombieAttack.sol\":151:152  0 */\n  0x0\n    /* \"ZombieAttack.sol\":133:152  uint randNounce = 0 */\n  0x8\n  sstore\n    /* \"ownable.sol\":499:509  msg.sender */\n  caller\n    /* \"ownable.sol\":491:496  owner */\n  0x0\n  dup1\n    /* \"ownable.sol\":491:509  owner = msg.sender */\n  0x100\n  exp\n  dup2\n  sload\n  dup2\n  0xffffffffffffffffffffffffffffffffffffffff\n  mul\n  not\n  and\n  swap1\n  dup4\n  0xffffffffffffffffffffffffffffffffffffffff\n  and\n  mul\n  or\n  swap1\n  sstore\n  pop\n    /* \"ZombieAttack.sol\":89:905  contract ZombieAttack is ZombieHelper {... */\n  dataSize(sub_0)\n  dup1\n  dataOffset(sub_0)\n  0x0\n  codecopy\n  0x0\n  return\nstop\n\nsub_0: assembly {\n        /* \"ZombieAttack.sol\":89:905  contract ZombieAttack is ZombieHelper {... */\n      mstore(0x40, 0x80)\n      jumpi(tag_1, lt(calldatasize, 0x4))\n      calldataload(0x0)\n      0x100000000000000000000000000000000000000000000000000000000\n      swap1\n      div\n      0xffffffff\n      and\n      dup1\n      0x1afd7e1\n      eq\n      tag_2\n      jumpi\n      dup1\n      0xce90ec2\n      eq\n      tag_3\n      jumpi\n      dup1\n      0x2052465e\n      eq\n      tag_4\n      jumpi\n      dup1\n      0x3ccfd60b\n      eq\n      tag_5\n      jumpi\n      dup1\n      0x4412e104\n      eq\n      tag_6\n      jumpi\n      dup1\n      0x528b7b8f\n      eq\n      tag_7\n      jumpi\n      dup1\n      0x5faf2880\n      eq\n      tag_8\n      jumpi\n      dup1\n      0x7bff0a01\n      eq\n      tag_9\n      jumpi\n      dup1\n      0x8da5cb5b\n      eq\n      tag_10\n      jumpi\n      dup1\n      0xa59fde52\n      eq\n      tag_11\n      jumpi\n      dup1\n      0xc39cbef1\n      eq\n      tag_12\n      jumpi\n      dup1\n      0xccf670f8\n      eq\n      tag_13\n      jumpi\n      dup1\n      0xf2fde38b\n      eq\n      tag_14\n      jumpi\n      dup1\n      0xff0e4761\n      eq\n      tag_15\n      jumpi\n    tag_1:\n      0x0\n      dup1\n      revert\n        /* \"ZombieFactory.sol\":1169:1217  mapping(address => uint) public ownerZombieCount */\n    tag_2:\n      callvalue\n        /* \"--CODEGEN--\":8:17   */\n      dup1\n        /* \"--CODEGEN--\":5:7   */\n      iszero\n      tag_16\n      jumpi\n        /* \"--CODEGEN--\":30:31   */\n      0x0\n        /* \"--CODEGEN--\":27:28   */\n      dup1\n        /* \"--CODEGEN--\":20:32   */\n      revert\n        /* \"--CODEGEN--\":5:7   */\n    tag_16:\n        /* \"ZombieFactory.sol\":1169:1217  mapping(address => uint) public ownerZombieCount */\n      pop\n      tag_17\n      0x4\n      dup1\n      calldatasize\n      sub\n      dup2\n      add\n      swap1\n      dup1\n      dup1\n      calldataload\n      0xffffffffffffffffffffffffffffffffffffffff\n      and\n      swap1\n      0x20\n      add\n      swap1\n      swap3\n      swap2\n      swap1\n      pop\n      pop\n      pop\n      jump(tag_18)\n    tag_17:\n      mload(0x40)\n      dup1\n      dup3\n      dup2\n      mstore\n      0x20\n      add\n      swap2\n      pop\n      pop\n      mload(0x40)\n      dup1\n      swap2\n      sub\n      swap1\n      return\n        /* \"ZombieHelper.sol\":1041:1176  function levelUp(uint _zombieId) external payable {... */\n    tag_3:\n      tag_19\n      0x4\n      dup1\n      calldatasize\n      sub\n      dup2\n      add\n      swap1\n      dup1\n      dup1\n      calldataload\n      swap1\n      0x20\n      add\n      swap1\n      swap3\n      swap2\n      swap1\n      pop\n      pop\n      pop\n      jump(tag_20)\n    tag_19:\n      stop\n        /* \"ZombieFactory.sol\":336:359  Zombie[] public zombies */\n    tag_4:\n      callvalue\n        /* \"--CODEGEN--\":8:17   */\n      dup1\n        /* \"--CODEGEN--\":5:7   */\n      iszero\n      tag_21\n      jumpi\n        /* \"--CODEGEN--\":30:31   */\n      0x0\n        /* \"--CODEGEN--\":27:28   */\n      dup1\n        /* \"--CODEGEN--\":20:32   */\n      revert\n        /* \"--CODEGEN--\":5:7   */\n    tag_21:\n        /* \"ZombieFactory.sol\":336:359  Zombie[] public zombies */\n      pop\n      tag_22\n      0x4\n      dup1\n      calldatasize\n      sub\n      dup2\n      add\n      swap1\n      dup1\n      dup1\n      calldataload\n      swap1\n      0x20\n      add\n      swap1\n      swap3\n      swap2\n      swap1\n      pop\n      pop\n      pop\n      jump(tag_23)\n    tag_22:\n      mload(0x40)\n      dup1\n      dup8\n      dup2\n      mstore\n      0x20\n      add\n      dup7\n      0xffffffff\n      and\n      0xffffffff\n      and\n      dup2\n      mstore\n      0x20\n      add\n      dup6\n      0xffffffff\n      and\n      0xffffffff\n      and\n      dup2\n      mstore\n      0x20\n      add\n      dup5\n      0xffffffff\n      and\n      0xffffffff\n      and\n      dup2\n      mstore\n      0x20\n      add\n      dup4\n      0xffffffff\n      and\n      0xffffffff\n      and\n      dup2\n      mstore\n      0x20\n      add\n      dup1\n      0x20\n      add\n      dup3\n      dup2\n      sub\n      dup3\n      mstore\n      dup4\n      dup2\n      dup2\n      mload\n      dup2\n      mstore\n      0x20\n      add\n      swap2\n      pop\n      dup1\n      mload\n      swap1\n      0x20\n      add\n      swap1\n      dup1\n      dup4\n      dup4\n        /* \"--CODEGEN--\":23:24   */\n      0x0\n        /* \"--CODEGEN--\":8:108   */\n    tag_24:\n        /* \"--CODEGEN--\":33:36   */\n      dup4\n        /* \"--CODEGEN--\":30:31   */\n      dup2\n        /* \"--CODEGEN--\":27:37   */\n      lt\n        /* \"--CODEGEN--\":8:108   */\n      iszero\n      tag_25\n      jumpi\n        /* \"--CODEGEN--\":99:100   */\n      dup1\n        /* \"--CODEGEN--\":94:97   */\n      dup3\n        /* \"--CODEGEN--\":90:101   */\n      add\n        /* \"--CODEGEN--\":84:102   */\n      mload\n        /* \"--CODEGEN--\":80:81   */\n      dup2\n        /* \"--CODEGEN--\":75:78   */\n      dup5\n        /* \"--CODEGEN--\":71:82   */\n      add\n        /* \"--CODEGEN--\":64:103   */\n      mstore\n        /* \"--CODEGEN--\":52:54   */\n      0x20\n        /* \"--CODEGEN--\":49:50   */\n      dup2\n        /* \"--CODEGEN--\":45:55   */\n      add\n        /* \"--CODEGEN--\":40:55   */\n      swap1\n      pop\n        /* \"--CODEGEN--\":8:108   */\n      jump(tag_24)\n    tag_25:\n        /* \"--CODEGEN--\":12:26   */\n      pop\n        /* \"ZombieFactory.sol\":336:359  Zombie[] public zombies */\n      pop\n      pop\n      pop\n      swap1\n      pop\n      swap1\n      dup2\n      add\n      swap1\n      0x1f\n      and\n      dup1\n      iszero\n      tag_27\n      jumpi\n      dup1\n      dup3\n      sub\n      dup1\n      mload\n      0x1\n      dup4\n      0x20\n      sub\n      0x100\n      exp\n      sub\n      not\n      and\n      dup2\n      mstore\n      0x20\n      add\n      swap2\n      pop\n    tag_27:\n      pop\n      swap8\n      pop\n      pop\n      pop\n      pop\n      pop\n      pop\n      pop\n      pop\n      mload(0x40)\n      dup1\n      swap2\n      sub\n      swap1\n      return\n        /* \"ZombieHelper.sol\":1182:1266  function withdraw() external onlyOwner {... */\n    tag_5:\n      callvalue\n        /* \"--CODEGEN--\":8:17   */\n      dup1\n        /* \"--CODEGEN--\":5:7   */\n      iszero\n      tag_28\n      jumpi\n        /* \"--CODEGEN--\":30:31   */\n      0x0\n        /* \"--CODEGEN--\":27:28   */\n      dup1\n        /* \"--CODEGEN--\":20:32   */\n      revert\n        /* \"--CODEGEN--\":5:7   */\n    tag_28:\n        /* \"ZombieHelper.sol\":1182:1266  function withdraw() external onlyOwner {... */\n      pop\n      tag_29\n      jump(tag_30)\n    tag_29:\n      stop\n        /* \"ZombieHelper.sol\":660:1035  function getZombiesByOwner(address _owner) external view returns(uint[]) {... */\n    tag_6:\n      callvalue\n        /* \"--CODEGEN--\":8:17   */\n      dup1\n        /* \"--CODEGEN--\":5:7   */\n      iszero\n      tag_31\n      jumpi\n        /* \"--CODEGEN--\":30:31   */\n      0x0\n        /* \"--CODEGEN--\":27:28   */\n      dup1\n        /* \"--CODEGEN--\":20:32   */\n      revert\n        /* \"--CODEGEN--\":5:7   */\n    tag_31:\n        /* \"ZombieHelper.sol\":660:1035  function getZombiesByOwner(address _owner) external view returns(uint[]) {... */\n      pop\n      tag_32\n      0x4\n      dup1\n      calldatasize\n      sub\n      dup2\n      add\n      swap1\n      dup1\n      dup1\n      calldataload\n      0xffffffffffffffffffffffffffffffffffffffff\n      and\n      swap1\n      0x20\n      add\n      swap1\n      swap3\n      swap2\n      swap1\n      pop\n      pop\n      pop\n      jump(tag_33)\n    tag_32:\n      mload(0x40)\n      dup1\n      dup1\n      0x20\n      add\n      dup3\n      dup2\n      sub\n      dup3\n      mstore\n      dup4\n      dup2\n      dup2\n      mload\n      dup2\n      mstore\n      0x20\n      add\n      swap2\n      pop\n      dup1\n      mload\n      swap1\n      0x20\n      add\n      swap1\n      0x20\n      mul\n      dup1\n      dup4\n      dup4\n        /* \"--CODEGEN--\":23:24   */\n      0x0\n        /* \"--CODEGEN--\":8:108   */\n    tag_34:\n        /* \"--CODEGEN--\":33:36   */\n      dup4\n        /* \"--CODEGEN--\":30:31   */\n      dup2\n        /* \"--CODEGEN--\":27:37   */\n      lt\n        /* \"--CODEGEN--\":8:108   */\n      iszero\n      tag_35\n      jumpi\n        /* \"--CODEGEN--\":99:100   */\n      dup1\n        /* \"--CODEGEN--\":94:97   */\n      dup3\n        /* \"--CODEGEN--\":90:101   */\n      add\n        /* \"--CODEGEN--\":84:102   */\n      mload\n        /* \"--CODEGEN--\":80:81   */\n      dup2\n        /* \"--CODEGEN--\":75:78   */\n      dup5\n        /* \"--CODEGEN--\":71:82   */\n      add\n        /* \"--CODEGEN--\":64:103   */\n      mstore\n        /* \"--CODEGEN--\":52:54   */\n      0x20\n        /* \"--CODEGEN--\":49:50   */\n      dup2\n        /* \"--CODEGEN--\":45:55   */\n      add\n        /* \"--CODEGEN--\":40:55   */\n      swap1\n      pop\n        /* \"--CODEGEN--\":8:108   */\n      jump(tag_34)\n    tag_35:\n        /* \"--CODEGEN--\":12:26   */\n      pop\n        /* \"ZombieHelper.sol\":660:1035  function getZombiesByOwner(address _owner) external view returns(uint[]) {... */\n      pop\n      pop\n      pop\n      swap1\n      pop\n      add\n      swap3\n      pop\n      pop\n      pop\n      mload(0x40)\n      dup1\n      swap2\n      sub\n      swap1\n      return\n        /* \"ZombieFactory.sol\":1118:1163  mapping(uint => address) public zombieToOwner */\n    tag_7:\n      callvalue\n        /* \"--CODEGEN--\":8:17   */\n      dup1\n        /* \"--CODEGEN--\":5:7   */\n      iszero\n      tag_37\n      jumpi\n        /* \"--CODEGEN--\":30:31   */\n      0x0\n        /* \"--CODEGEN--\":27:28   */\n      dup1\n        /* \"--CODEGEN--\":20:32   */\n      revert\n        /* \"--CODEGEN--\":5:7   */\n    tag_37:\n        /* \"ZombieFactory.sol\":1118:1163  mapping(uint => address) public zombieToOwner */\n      pop\n      tag_38\n      0x4\n      dup1\n      calldatasize\n      sub\n      dup2\n      add\n      swap1\n      dup1\n      dup1\n      calldataload\n      swap1\n      0x20\n      add\n      swap1\n      swap3\n      swap2\n      swap1\n      pop\n      pop\n      pop\n      jump(tag_39)\n    tag_38:\n      mload(0x40)\n      dup1\n      dup3\n      0xffffffffffffffffffffffffffffffffffffffff\n      and\n      0xffffffffffffffffffffffffffffffffffffffff\n      and\n      dup2\n      mstore\n      0x20\n      add\n      swap2\n      pop\n      pop\n      mload(0x40)\n      dup1\n      swap2\n      sub\n      swap1\n      return\n        /* \"ZombieHelper.sol\":464:654  function changeDna(uint _zombieId, uint _newDna) external aboveLevel(20, _zombieId) {... */\n    tag_8:\n      callvalue\n        /* \"--CODEGEN--\":8:17   */\n      dup1\n        /* \"--CODEGEN--\":5:7   */\n      iszero\n      tag_40\n      jumpi\n        /* \"--CODEGEN--\":30:31   */\n      0x0\n        /* \"--CODEGEN--\":27:28   */\n      dup1\n        /* \"--CODEGEN--\":20:32   */\n      revert\n        /* \"--CODEGEN--\":5:7   */\n    tag_40:\n        /* \"ZombieHelper.sol\":464:654  function changeDna(uint _zombieId, uint _newDna) external aboveLevel(20, _zombieId) {... */\n      pop\n      tag_41\n      0x4\n      dup1\n      calldatasize\n      sub\n      dup2\n      add\n      swap1\n      dup1\n      dup1\n      calldataload\n      swap1\n      0x20\n      add\n      swap1\n      swap3\n      swap2\n      swap1\n      dup1\n      calldataload\n      swap1\n      0x20\n      add\n      swap1\n      swap3\n      swap2\n      swap1\n      pop\n      pop\n      pop\n      jump(tag_42)\n    tag_41:\n      stop\n        /* \"ZombieFactory.sol\":915:1112  function createRandomZombie(string _name) public {... */\n    tag_9:\n      callvalue\n        /* \"--CODEGEN--\":8:17   */\n      dup1\n        /* \"--CODEGEN--\":5:7   */\n      iszero\n      tag_43\n      jumpi\n        /* \"--CODEGEN--\":30:31   */\n      0x0\n        /* \"--CODEGEN--\":27:28   */\n      dup1\n        /* \"--CODEGEN--\":20:32   */\n      revert\n        /* \"--CODEGEN--\":5:7   */\n    tag_43:\n        /* \"ZombieFactory.sol\":915:1112  function createRandomZombie(string _name) public {... */\n      pop\n      tag_44\n      0x4\n      dup1\n      calldatasize\n      sub\n      dup2\n      add\n      swap1\n      dup1\n      dup1\n      calldataload\n      swap1\n      0x20\n      add\n      swap1\n      dup3\n      add\n      dup1\n      calldataload\n      swap1\n      0x20\n      add\n      swap1\n      dup1\n      dup1\n      0x1f\n      add\n      0x20\n      dup1\n      swap2\n      div\n      mul\n      0x20\n      add\n      mload(0x40)\n      swap1\n      dup2\n      add\n      0x40\n      mstore\n      dup1\n      swap4\n      swap3\n      swap2\n      swap1\n      dup2\n      dup2\n      mstore\n      0x20\n      add\n      dup4\n      dup4\n      dup1\n      dup3\n      dup5\n      calldatacopy\n      dup3\n      add\n      swap2\n      pop\n      pop\n      pop\n      pop\n      pop\n      pop\n      swap2\n      swap3\n      swap2\n      swap3\n      swap1\n      pop\n      pop\n      pop\n      jump(tag_45)\n    tag_44:\n      stop\n        /* \"ownable.sol\":235:255  address public owner */\n    tag_10:\n      callvalue\n        /* \"--CODEGEN--\":8:17   */\n      dup1\n        /* \"--CODEGEN--\":5:7   */\n      iszero\n      tag_46\n      jumpi\n        /* \"--CODEGEN--\":30:31   */\n      0x0\n        /* \"--CODEGEN--\":27:28   */\n      dup1\n        /* \"--CODEGEN--\":20:32   */\n      revert\n        /* \"--CODEGEN--\":5:7   */\n    tag_46:\n        /* \"ownable.sol\":235:255  address public owner */\n      pop\n      tag_47\n      jump(tag_48)\n    tag_47:\n      mload(0x40)\n      dup1\n      dup3\n      0xffffffffffffffffffffffffffffffffffffffff\n      and\n      0xffffffffffffffffffffffffffffffffffffffff\n      and\n      dup2\n      mstore\n      0x20\n      add\n      swap2\n      pop\n      pop\n      mload(0x40)\n      dup1\n      swap2\n      sub\n      swap1\n      return\n        /* \"ZombieAttack.sol\":159:903  function doAttack(uint attackerId, uint defenderId) {... */\n    tag_11:\n      callvalue\n        /* \"--CODEGEN--\":8:17   */\n      dup1\n        /* \"--CODEGEN--\":5:7   */\n      iszero\n      tag_49\n      jumpi\n        /* \"--CODEGEN--\":30:31   */\n      0x0\n        /* \"--CODEGEN--\":27:28   */\n      dup1\n        /* \"--CODEGEN--\":20:32   */\n      revert\n        /* \"--CODEGEN--\":5:7   */\n    tag_49:\n        /* \"ZombieAttack.sol\":159:903  function doAttack(uint attackerId, uint defenderId) {... */\n      pop\n      tag_50\n      0x4\n      dup1\n      calldatasize\n      sub\n      dup2\n      add\n      swap1\n      dup1\n      dup1\n      calldataload\n      swap1\n      0x20\n      add\n      swap1\n      swap3\n      swap2\n      swap1\n      dup1\n      calldataload\n      swap1\n      0x20\n      add\n      swap1\n      swap3\n      swap2\n      swap1\n      pop\n      pop\n      pop\n      jump(tag_51)\n    tag_50:\n      stop\n        /* \"ZombieHelper.sol\":264:458  function changeName(uint _zombieId, string _newName) external aboveLevel(2,_zombieId) {... */\n    tag_12:\n      callvalue\n        /* \"--CODEGEN--\":8:17   */\n      dup1\n        /* \"--CODEGEN--\":5:7   */\n      iszero\n      tag_52\n      jumpi\n        /* \"--CODEGEN--\":30:31   */\n      0x0\n        /* \"--CODEGEN--\":27:28   */\n      dup1\n        /* \"--CODEGEN--\":20:32   */\n      revert\n        /* \"--CODEGEN--\":5:7   */\n    tag_52:\n        /* \"ZombieHelper.sol\":264:458  function changeName(uint _zombieId, string _newName) external aboveLevel(2,_zombieId) {... */\n      pop\n      tag_53\n      0x4\n      dup1\n      calldatasize\n      sub\n      dup2\n      add\n      swap1\n      dup1\n      dup1\n      calldataload\n      swap1\n      0x20\n      add\n      swap1\n      swap3\n      swap2\n      swap1\n      dup1\n      calldataload\n      swap1\n      0x20\n      add\n      swap1\n      dup3\n      add\n      dup1\n      calldataload\n      swap1\n      0x20\n      add\n      swap2\n      swap1\n      swap2\n      swap3\n      swap4\n      swap2\n      swap3\n      swap4\n      swap1\n      pop\n      pop\n      pop\n      jump(tag_54)\n    tag_53:\n      stop\n        /* \"ZombieHelper.sol\":1272:1359  function setLevelUpFee(uint _fee) external onlyOwner {... */\n    tag_13:\n      callvalue\n        /* \"--CODEGEN--\":8:17   */\n      dup1\n        /* \"--CODEGEN--\":5:7   */\n      iszero\n      tag_55\n      jumpi\n        /* \"--CODEGEN--\":30:31   */\n      0x0\n        /* \"--CODEGEN--\":27:28   */\n      dup1\n        /* \"--CODEGEN--\":20:32   */\n      revert\n        /* \"--CODEGEN--\":5:7   */\n    tag_55:\n        /* \"ZombieHelper.sol\":1272:1359  function setLevelUpFee(uint _fee) external onlyOwner {... */\n      pop\n      tag_56\n      0x4\n      dup1\n      calldatasize\n      sub\n      dup2\n      add\n      swap1\n      dup1\n      dup1\n      calldataload\n      swap1\n      0x20\n      add\n      swap1\n      swap3\n      swap2\n      swap1\n      pop\n      pop\n      pop\n      jump(tag_57)\n    tag_56:\n      stop\n        /* \"ownable.sol\":816:983  function transferOwnership(address newOwner) public onlyOwner {... */\n    tag_14:\n      callvalue\n        /* \"--CODEGEN--\":8:17   */\n      dup1\n        /* \"--CODEGEN--\":5:7   */\n      iszero\n      tag_58\n      jumpi\n        /* \"--CODEGEN--\":30:31   */\n      0x0\n        /* \"--CODEGEN--\":27:28   */\n      dup1\n        /* \"--CODEGEN--\":20:32   */\n      revert\n        /* \"--CODEGEN--\":5:7   */\n    tag_58:\n        /* \"ownable.sol\":816:983  function transferOwnership(address newOwner) public onlyOwner {... */\n      pop\n      tag_59\n      0x4\n      dup1\n      calldatasize\n      sub\n      dup2\n      add\n      swap1\n      dup1\n      dup1\n      calldataload\n      0xffffffffffffffffffffffffffffffffffffffff\n      and\n      swap1\n      0x20\n      add\n      swap1\n      swap3\n      swap2\n      swap1\n      pop\n      pop\n      pop\n      jump(tag_60)\n    tag_59:\n      stop\n        /* \"ZombieFeeding.sol\":757:919  function feedOnHuman(uint _zombieId, uint _humanId) public {... */\n    tag_15:\n      callvalue\n        /* \"--CODEGEN--\":8:17   */\n      dup1\n        /* \"--CODEGEN--\":5:7   */\n      iszero\n      tag_61\n      jumpi\n        /* \"--CODEGEN--\":30:31   */\n      0x0\n        /* \"--CODEGEN--\":27:28   */\n      dup1\n        /* \"--CODEGEN--\":20:32   */\n      revert\n        /* \"--CODEGEN--\":5:7   */\n    tag_61:\n        /* \"ZombieFeeding.sol\":757:919  function feedOnHuman(uint _zombieId, uint _humanId) public {... */\n      pop\n      tag_62\n      0x4\n      dup1\n      calldatasize\n      sub\n      dup2\n      add\n      swap1\n      dup1\n      dup1\n      calldataload\n      swap1\n      0x20\n      add\n      swap1\n      swap3\n      swap2\n      swap1\n      dup1\n      calldataload\n      swap1\n      0x20\n      add\n      swap1\n      swap3\n      swap2\n      swap1\n      pop\n      pop\n      pop\n      jump(tag_63)\n    tag_62:\n      stop\n        /* \"ZombieFactory.sol\":1169:1217  mapping(address => uint) public ownerZombieCount */\n    tag_18:\n      mstore(0x20, 0x6)\n      dup1\n      0x0\n      mstore\n      keccak256(0x0, 0x40)\n      0x0\n      swap2\n      pop\n      swap1\n      pop\n      sload\n      dup2\n      jump\t// out\n        /* \"ZombieHelper.sol\":1041:1176  function levelUp(uint _zombieId) external payable {... */\n    tag_20:\n        /* \"ZombieHelper.sol\":1122:1132  levelUpFee */\n      sload(0x7)\n        /* \"ZombieHelper.sol\":1109:1118  msg.value */\n      callvalue\n        /* \"ZombieHelper.sol\":1109:1132  msg.value == levelUpFee */\n      eq\n        /* \"ZombieHelper.sol\":1101:1133  require(msg.value == levelUpFee) */\n      iszero\n      iszero\n      tag_65\n      jumpi\n      0x0\n      dup1\n      revert\n    tag_65:\n        /* \"ZombieHelper.sol\":1143:1150  zombies */\n      0x3\n        /* \"ZombieHelper.sol\":1151:1160  _zombieId */\n      dup2\n        /* \"ZombieHelper.sol\":1143:1161  zombies[_zombieId] */\n      dup2\n      sload\n      dup2\n      lt\n      iszero\n      iszero\n      tag_66\n      jumpi\n      invalid\n    tag_66:\n      swap1\n      0x0\n      mstore\n      keccak256(0x0, 0x20)\n      swap1\n      0x3\n      mul\n      add\n        /* \"ZombieHelper.sol\":1143:1167  zombies[_zombieId].level */\n      0x1\n      add\n      0x0\n        /* \"ZombieHelper.sol\":1143:1169  zombies[_zombieId].level++ */\n      dup2\n      dup2\n      swap1\n      sload\n      swap1\n      0x100\n      exp\n      swap1\n      div\n      0xffffffff\n      and\n      dup1\n      swap3\n      swap2\n      swap1\n      0x1\n      add\n      swap2\n      swap1\n      0x100\n      exp\n      dup2\n      sload\n      dup2\n      0xffffffff\n      mul\n      not\n      and\n      swap1\n      dup4\n      0xffffffff\n      and\n      mul\n      or\n      swap1\n      sstore\n      pop\n      pop\n        /* \"ZombieHelper.sol\":1041:1176  function levelUp(uint _zombieId) external payable {... */\n      pop\n      jump\t// out\n        /* \"ZombieFactory.sol\":336:359  Zombie[] public zombies */\n    tag_23:\n      0x3\n      dup2\n      dup2\n      sload\n      dup2\n      lt\n      iszero\n      iszero\n      tag_68\n      jumpi\n      invalid\n    tag_68:\n      swap1\n      0x0\n      mstore\n      keccak256(0x0, 0x20)\n      swap1\n      0x3\n      mul\n      add\n      0x0\n      swap2\n      pop\n      swap1\n      pop\n      dup1\n      0x0\n      add\n      sload\n      swap1\n      dup1\n      0x1\n      add\n      0x0\n      swap1\n      sload\n      swap1\n      0x100\n      exp\n      swap1\n      div\n      0xffffffff\n      and\n      swap1\n      dup1\n      0x1\n      add\n      0x4\n      swap1\n      sload\n      swap1\n      0x100\n      exp\n      swap1\n      div\n      0xffffffff\n      and\n      swap1\n      dup1\n      0x1\n      add\n      0x8\n      swap1\n      sload\n      swap1\n      0x100\n      exp\n      swap1\n      div\n      0xffffffff\n      and\n      swap1\n      dup1\n      0x1\n      add\n      0xc\n      swap1\n      sload\n      swap1\n      0x100\n      exp\n      swap1\n      div\n      0xffffffff\n      and\n      swap1\n      dup1\n      0x2\n      add\n      dup1\n      sload\n      0x1\n      dup2\n      0x1\n      and\n      iszero\n      0x100\n      mul\n      sub\n      and\n      0x2\n      swap1\n      div\n      dup1\n      0x1f\n      add\n      0x20\n      dup1\n      swap2\n      div\n      mul\n      0x20\n      add\n      mload(0x40)\n      swap1\n      dup2\n      add\n      0x40\n      mstore\n      dup1\n      swap3\n      swap2\n      swap1\n      dup2\n      dup2\n      mstore\n      0x20\n      add\n      dup3\n      dup1\n      sload\n      0x1\n      dup2\n      0x1\n      and\n      iszero\n      0x100\n      mul\n      sub\n      and\n      0x2\n      swap1\n      div\n      dup1\n      iszero\n      tag_70\n      jumpi\n      dup1\n      0x1f\n      lt\n      tag_71\n      jumpi\n      0x100\n      dup1\n      dup4\n      sload\n      div\n      mul\n      dup4\n      mstore\n      swap2\n      0x20\n      add\n      swap2\n      jump(tag_70)\n    tag_71:\n      dup3\n      add\n      swap2\n      swap1\n      0x0\n      mstore\n      keccak256(0x0, 0x20)\n      swap1\n    tag_72:\n      dup2\n      sload\n      dup2\n      mstore\n      swap1\n      0x1\n      add\n      swap1\n      0x20\n      add\n      dup1\n      dup4\n      gt\n      tag_72\n      jumpi\n      dup3\n      swap1\n      sub\n      0x1f\n      and\n      dup3\n      add\n      swap2\n    tag_70:\n      pop\n      pop\n      pop\n      pop\n      pop\n      swap1\n      pop\n      dup7\n      jump\t// out\n        /* \"ZombieHelper.sol\":1182:1266  function withdraw() external onlyOwner {... */\n    tag_30:\n        /* \"ownable.sol\":640:645  owner */\n      0x0\n      dup1\n      swap1\n      sload\n      swap1\n      0x100\n      exp\n      swap1\n      div\n      0xffffffffffffffffffffffffffffffffffffffff\n      and\n        /* \"ownable.sol\":626:645  msg.sender == owner */\n      0xffffffffffffffffffffffffffffffffffffffff\n      and\n        /* \"ownable.sol\":626:636  msg.sender */\n      caller\n        /* \"ownable.sol\":626:645  msg.sender == owner */\n      0xffffffffffffffffffffffffffffffffffffffff\n      and\n      eq\n        /* \"ownable.sol\":618:646  require(msg.sender == owner) */\n      iszero\n      iszero\n      tag_74\n      jumpi\n      0x0\n      dup1\n      revert\n    tag_74:\n        /* \"ZombieHelper.sol\":1231:1236  owner */\n      0x0\n      dup1\n      swap1\n      sload\n      swap1\n      0x100\n      exp\n      swap1\n      div\n      0xffffffffffffffffffffffffffffffffffffffff\n      and\n        /* \"ZombieHelper.sol\":1231:1245  owner.transfer */\n      0xffffffffffffffffffffffffffffffffffffffff\n      and\n        /* \"ZombieHelper.sol\":1231:1259  owner.transfer(this.balance) */\n      0x8fc\n        /* \"ZombieHelper.sol\":1246:1250  this */\n      address\n        /* \"ZombieHelper.sol\":1246:1258  this.balance */\n      0xffffffffffffffffffffffffffffffffffffffff\n      and\n      balance\n        /* \"ZombieHelper.sol\":1231:1259  owner.transfer(this.balance) */\n      swap1\n      dup2\n      iszero\n      mul\n      swap1\n      mload(0x40)\n      0x0\n      mload(0x40)\n      dup1\n      dup4\n      sub\n      dup2\n      dup6\n      dup9\n      dup9\n      call\n      swap4\n      pop\n      pop\n      pop\n      pop\n      iszero\n        /* \"--CODEGEN--\":8:17   */\n      dup1\n        /* \"--CODEGEN--\":5:7   */\n      iszero\n      tag_76\n      jumpi\n        /* \"--CODEGEN--\":45:61   */\n      returndatasize\n        /* \"--CODEGEN--\":42:43   */\n      0x0\n        /* \"--CODEGEN--\":39:40   */\n      dup1\n        /* \"--CODEGEN--\":24:62   */\n      returndatacopy\n        /* \"--CODEGEN--\":77:93   */\n      returndatasize\n        /* \"--CODEGEN--\":74:75   */\n      0x0\n        /* \"--CODEGEN--\":67:94   */\n      revert\n        /* \"--CODEGEN--\":5:7   */\n    tag_76:\n        /* \"ZombieHelper.sol\":1231:1259  owner.transfer(this.balance) */\n      pop\n        /* \"ZombieHelper.sol\":1182:1266  function withdraw() external onlyOwner {... */\n      jump\t// out\n        /* \"ZombieHelper.sol\":660:1035  function getZombiesByOwner(address _owner) external view returns(uint[]) {... */\n    tag_33:\n        /* \"ZombieHelper.sol\":725:731  uint[] */\n      0x60\n        /* \"ZombieHelper.sol\":743:764  uint [] memory result */\n      dup1\n        /* \"ZombieHelper.sol\":813:823  uint index */\n      0x0\n        /* \"ZombieHelper.sol\":841:847  uint i */\n      dup1\n        /* \"ZombieHelper.sol\":778:794  ownerZombieCount */\n      0x6\n        /* \"ZombieHelper.sol\":778:802  ownerZombieCount[_owner] */\n      0x0\n        /* \"ZombieHelper.sol\":795:801  _owner */\n      dup7\n        /* \"ZombieHelper.sol\":778:802  ownerZombieCount[_owner] */\n      0xffffffffffffffffffffffffffffffffffffffff\n      and\n      0xffffffffffffffffffffffffffffffffffffffff\n      and\n      dup2\n      mstore\n      0x20\n      add\n      swap1\n      dup2\n      mstore\n      0x20\n      add\n      0x0\n      keccak256\n      sload\n        /* \"ZombieHelper.sol\":767:803  new uint[](ownerZombieCount[_owner]) */\n      mload(0x40)\n      swap1\n      dup1\n      dup3\n      mstore\n      dup1\n      0x20\n      mul\n      0x20\n      add\n      dup3\n      add\n      0x40\n      mstore\n      dup1\n      iszero\n      tag_78\n      jumpi\n      dup2\n      0x20\n      add\n        /* \"--CODEGEN--\":29:31   */\n      0x20\n        /* \"--CODEGEN--\":21:27   */\n      dup3\n        /* \"--CODEGEN--\":17:32   */\n      mul\n        /* \"--CODEGEN--\":117:121   */\n      dup1\n        /* \"--CODEGEN--\":105:115   */\n      codesize\n        /* \"--CODEGEN--\":97:103   */\n      dup4\n        /* \"--CODEGEN--\":88:122   */\n      codecopy\n        /* \"--CODEGEN--\":148:152   */\n      dup1\n        /* \"--CODEGEN--\":140:146   */\n      dup3\n        /* \"--CODEGEN--\":136:153   */\n      add\n        /* \"--CODEGEN--\":126:153   */\n      swap2\n      pop\n        /* \"--CODEGEN--\":0:157   */\n      pop\n        /* \"ZombieHelper.sol\":767:803  new uint[](ownerZombieCount[_owner]) */\n      swap1\n      pop\n    tag_78:\n      pop\n        /* \"ZombieHelper.sol\":743:803  uint [] memory result = new uint[](ownerZombieCount[_owner]) */\n      swap3\n      pop\n        /* \"ZombieHelper.sol\":826:827  0 */\n      0x0\n        /* \"ZombieHelper.sol\":813:827  uint index = 0 */\n      swap2\n      pop\n        /* \"ZombieHelper.sol\":850:851  0 */\n      0x0\n        /* \"ZombieHelper.sol\":841:851  uint i = 0 */\n      swap1\n      pop\n        /* \"ZombieHelper.sol\":837:1006  for(uint i = 0; i < zombies.length; i++){... */\n    tag_79:\n        /* \"ZombieHelper.sol\":857:864  zombies */\n      0x3\n        /* \"ZombieHelper.sol\":857:871  zombies.length */\n      dup1\n      sload\n      swap1\n      pop\n        /* \"ZombieHelper.sol\":853:854  i */\n      dup2\n        /* \"ZombieHelper.sol\":853:871  i < zombies.length */\n      lt\n        /* \"ZombieHelper.sol\":837:1006  for(uint i = 0; i < zombies.length; i++){... */\n      iszero\n      tag_80\n      jumpi\n        /* \"ZombieHelper.sol\":914:920  _owner */\n      dup5\n        /* \"ZombieHelper.sol\":894:920  zombieToOwner[i] == _owner */\n      0xffffffffffffffffffffffffffffffffffffffff\n      and\n        /* \"ZombieHelper.sol\":894:907  zombieToOwner */\n      0x5\n        /* \"ZombieHelper.sol\":894:910  zombieToOwner[i] */\n      0x0\n        /* \"ZombieHelper.sol\":908:909  i */\n      dup4\n        /* \"ZombieHelper.sol\":894:910  zombieToOwner[i] */\n      dup2\n      mstore\n      0x20\n      add\n      swap1\n      dup2\n      mstore\n      0x20\n      add\n      0x0\n      keccak256\n      0x0\n      swap1\n      sload\n      swap1\n      0x100\n      exp\n      swap1\n      div\n      0xffffffffffffffffffffffffffffffffffffffff\n      and\n        /* \"ZombieHelper.sol\":894:920  zombieToOwner[i] == _owner */\n      0xffffffffffffffffffffffffffffffffffffffff\n      and\n      eq\n        /* \"ZombieHelper.sol\":891:996  if(zombieToOwner[i] == _owner){... */\n      iszero\n      tag_82\n      jumpi\n        /* \"ZombieHelper.sol\":955:956  i */\n      dup1\n        /* \"ZombieHelper.sol\":939:945  result */\n      dup4\n        /* \"ZombieHelper.sol\":946:951  index */\n      dup4\n        /* \"ZombieHelper.sol\":939:952  result[index] */\n      dup2\n      mload\n      dup2\n      lt\n      iszero\n      iszero\n      tag_83\n      jumpi\n      invalid\n    tag_83:\n      swap1\n      0x20\n      add\n      swap1\n      0x20\n      mul\n      add\n        /* \"ZombieHelper.sol\":939:956  result[index] = i */\n      dup2\n      dup2\n      mstore\n      pop\n      pop\n        /* \"ZombieHelper.sol\":974:981  index++ */\n      dup2\n      dup1\n      0x1\n      add\n      swap3\n      pop\n      pop\n        /* \"ZombieHelper.sol\":891:996  if(zombieToOwner[i] == _owner){... */\n    tag_82:\n        /* \"ZombieHelper.sol\":873:876  i++ */\n      dup1\n      dup1\n      0x1\n      add\n      swap2\n      pop\n      pop\n        /* \"ZombieHelper.sol\":837:1006  for(uint i = 0; i < zombies.length; i++){... */\n      jump(tag_79)\n    tag_80:\n        /* \"ZombieHelper.sol\":1022:1028  result */\n      dup3\n        /* \"ZombieHelper.sol\":1015:1028  return result */\n      swap4\n      pop\n        /* \"ZombieHelper.sol\":660:1035  function getZombiesByOwner(address _owner) external view returns(uint[]) {... */\n      pop\n      pop\n      pop\n      swap2\n      swap1\n      pop\n      jump\t// out\n        /* \"ZombieFactory.sol\":1118:1163  mapping(uint => address) public zombieToOwner */\n    tag_39:\n      mstore(0x20, 0x5)\n      dup1\n      0x0\n      mstore\n      keccak256(0x0, 0x40)\n      0x0\n      swap2\n      pop\n      sload\n      swap1\n      0x100\n      exp\n      swap1\n      div\n      0xffffffffffffffffffffffffffffffffffffffff\n      and\n      dup2\n      jump\t// out\n        /* \"ZombieHelper.sol\":464:654  function changeDna(uint _zombieId, uint _newDna) external aboveLevel(20, _zombieId) {... */\n    tag_42:\n        /* \"ZombieHelper.sol\":533:535  20 */\n      0x14\n        /* \"ZombieHelper.sol\":537:546  _zombieId */\n      dup3\n        /* \"ZombieHelper.sol\":197:203  _level */\n      dup2\n        /* \"ZombieHelper.sol\":169:176  zombies */\n      0x3\n        /* \"ZombieHelper.sol\":177:186  _zombieId */\n      dup3\n        /* \"ZombieHelper.sol\":169:187  zombies[_zombieId] */\n      dup2\n      sload\n      dup2\n      lt\n      iszero\n      iszero\n      tag_85\n      jumpi\n      invalid\n    tag_85:\n      swap1\n      0x0\n      mstore\n      keccak256(0x0, 0x20)\n      swap1\n      0x3\n      mul\n      add\n        /* \"ZombieHelper.sol\":169:193  zombies[_zombieId].level */\n      0x1\n      add\n      0x0\n      swap1\n      sload\n      swap1\n      0x100\n      exp\n      swap1\n      div\n      0xffffffff\n      and\n        /* \"ZombieHelper.sol\":169:203  zombies[_zombieId].level >= _level */\n      0xffffffff\n      and\n      lt\n      iszero\n        /* \"ZombieHelper.sol\":161:204  require(zombies[_zombieId].level >= _level) */\n      iszero\n      iszero\n      tag_87\n      jumpi\n      0x0\n      dup1\n      revert\n    tag_87:\n        /* \"ZombieHelper.sol\":594:604  msg.sender */\n      caller\n        /* \"ZombieHelper.sol\":566:604  zombieToOwner[_zombieId] == msg.sender */\n      0xffffffffffffffffffffffffffffffffffffffff\n      and\n        /* \"ZombieHelper.sol\":566:579  zombieToOwner */\n      0x5\n        /* \"ZombieHelper.sol\":566:590  zombieToOwner[_zombieId] */\n      0x0\n        /* \"ZombieHelper.sol\":580:589  _zombieId */\n      dup7\n        /* \"ZombieHelper.sol\":566:590  zombieToOwner[_zombieId] */\n      dup2\n      mstore\n      0x20\n      add\n      swap1\n      dup2\n      mstore\n      0x20\n      add\n      0x0\n      keccak256\n      0x0\n      swap1\n      sload\n      swap1\n      0x100\n      exp\n      swap1\n      div\n      0xffffffffffffffffffffffffffffffffffffffff\n      and\n        /* \"ZombieHelper.sol\":566:604  zombieToOwner[_zombieId] == msg.sender */\n      0xffffffffffffffffffffffffffffffffffffffff\n      and\n      eq\n        /* \"ZombieHelper.sol\":558:605  require(zombieToOwner[_zombieId] == msg.sender) */\n      iszero\n      iszero\n      tag_89\n      jumpi\n      0x0\n      dup1\n      revert\n    tag_89:\n        /* \"ZombieHelper.sol\":640:647  _newDna */\n      dup3\n        /* \"ZombieHelper.sol\":615:622  zombies */\n      0x3\n        /* \"ZombieHelper.sol\":623:632  _zombieId */\n      dup6\n        /* \"ZombieHelper.sol\":615:633  zombies[_zombieId] */\n      dup2\n      sload\n      dup2\n      lt\n      iszero\n      iszero\n      tag_90\n      jumpi\n      invalid\n    tag_90:\n      swap1\n      0x0\n      mstore\n      keccak256(0x0, 0x20)\n      swap1\n      0x3\n      mul\n      add\n        /* \"ZombieHelper.sol\":615:637  zombies[_zombieId].dna */\n      0x0\n      add\n        /* \"ZombieHelper.sol\":615:647  zombies[_zombieId].dna = _newDna */\n      dup2\n      swap1\n      sstore\n      pop\n        /* \"ZombieHelper.sol\":464:654  function changeDna(uint _zombieId, uint _newDna) external aboveLevel(20, _zombieId) {... */\n      pop\n      pop\n      pop\n      pop\n      jump\t// out\n        /* \"ZombieFactory.sol\":915:1112  function createRandomZombie(string _name) public {... */\n    tag_45:\n        /* \"ZombieFactory.sol\":1026:1038  uint randDna */\n      0x0\n        /* \"ZombieFactory.sol\":1014:1015  0 */\n      dup1\n        /* \"ZombieFactory.sol\":982:998  ownerZombieCount */\n      0x6\n        /* \"ZombieFactory.sol\":982:1010  ownerZombieCount[msg.sender] */\n      0x0\n        /* \"ZombieFactory.sol\":999:1009  msg.sender */\n      caller\n        /* \"ZombieFactory.sol\":982:1010  ownerZombieCount[msg.sender] */\n      0xffffffffffffffffffffffffffffffffffffffff\n      and\n      0xffffffffffffffffffffffffffffffffffffffff\n      and\n      dup2\n      mstore\n      0x20\n      add\n      swap1\n      dup2\n      mstore\n      0x20\n      add\n      0x0\n      keccak256\n      sload\n        /* \"ZombieFactory.sol\":982:1015  ownerZombieCount[msg.sender] == 0 */\n      eq\n        /* \"ZombieFactory.sol\":974:1016  require(ownerZombieCount[msg.sender] == 0) */\n      iszero\n      iszero\n      tag_93\n      jumpi\n      0x0\n      dup1\n      revert\n    tag_93:\n        /* \"ZombieFactory.sol\":1041:1066  _generateRandomDna(_name) */\n      tag_94\n        /* \"ZombieFactory.sol\":1060:1065  _name */\n      dup3\n        /* \"ZombieFactory.sol\":1041:1059  _generateRandomDna */\n      tag_95\n        /* \"ZombieFactory.sol\":1041:1066  _generateRandomDna(_name) */\n      jump\t// in\n    tag_94:\n        /* \"ZombieFactory.sol\":1026:1066  uint randDna = _generateRandomDna(_name) */\n      swap1\n      pop\n        /* \"ZombieFactory.sol\":1076:1105  _createZombie(_name, randDna) */\n      tag_96\n        /* \"ZombieFactory.sol\":1090:1095  _name */\n      dup3\n        /* \"ZombieFactory.sol\":1097:1104  randDna */\n      dup3\n        /* \"ZombieFactory.sol\":1076:1089  _createZombie */\n      tag_97\n        /* \"ZombieFactory.sol\":1076:1105  _createZombie(_name, randDna) */\n      jump\t// in\n    tag_96:\n        /* \"ZombieFactory.sol\":915:1112  function createRandomZombie(string _name) public {... */\n      pop\n      pop\n      jump\t// out\n        /* \"ownable.sol\":235:255  address public owner */\n    tag_48:\n      0x0\n      dup1\n      swap1\n      sload\n      swap1\n      0x100\n      exp\n      swap1\n      div\n      0xffffffffffffffffffffffffffffffffffffffff\n      and\n      dup2\n      jump\t// out\n        /* \"ZombieAttack.sol\":159:903  function doAttack(uint attackerId, uint defenderId) {... */\n    tag_51:\n        /* \"ZombieAttack.sol\":397:408  uint random */\n      0x0\n        /* \"ZombieAttack.sol\":258:268  msg.sender */\n      caller\n        /* \"ZombieAttack.sol\":229:268  zombieToOwner[attackerId] == msg.sender */\n      0xffffffffffffffffffffffffffffffffffffffff\n      and\n        /* \"ZombieAttack.sol\":229:242  zombieToOwner */\n      0x5\n        /* \"ZombieAttack.sol\":229:254  zombieToOwner[attackerId] */\n      0x0\n        /* \"ZombieAttack.sol\":243:253  attackerId */\n      dup6\n        /* \"ZombieAttack.sol\":229:254  zombieToOwner[attackerId] */\n      dup2\n      mstore\n      0x20\n      add\n      swap1\n      dup2\n      mstore\n      0x20\n      add\n      0x0\n      keccak256\n      0x0\n      swap1\n      sload\n      swap1\n      0x100\n      exp\n      swap1\n      div\n      0xffffffffffffffffffffffffffffffffffffffff\n      and\n        /* \"ZombieAttack.sol\":229:268  zombieToOwner[attackerId] == msg.sender */\n      0xffffffffffffffffffffffffffffffffffffffff\n      and\n      eq\n        /* \"ZombieAttack.sol\":221:269  require(zombieToOwner[attackerId] == msg.sender) */\n      iszero\n      iszero\n      tag_99\n      jumpi\n      0x0\n      dup1\n      revert\n    tag_99:\n        /* \"ZombieAttack.sol\":458:461  100 */\n      0x64\n        /* \"ZombieAttack.sol\":426:429  now */\n      timestamp\n        /* \"ZombieAttack.sol\":431:441  msg.sender */\n      caller\n        /* \"ZombieAttack.sol\":443:453  randNounce */\n      sload(0x8)\n        /* \"ZombieAttack.sol\":416:454  keccak256(now, msg.sender, randNounce) */\n      mload(0x40)\n      dup1\n      dup5\n      dup2\n      mstore\n      0x20\n      add\n      dup4\n      0xffffffffffffffffffffffffffffffffffffffff\n      and\n      0xffffffffffffffffffffffffffffffffffffffff\n      and\n      0x1000000000000000000000000\n      mul\n      dup2\n      mstore\n      0x14\n      add\n      dup3\n      dup2\n      mstore\n      0x20\n      add\n      swap4\n      pop\n      pop\n      pop\n      pop\n      mload(0x40)\n      dup1\n      swap2\n      sub\n      swap1\n      keccak256\n        /* \"ZombieAttack.sol\":411:455  uint(keccak256(now, msg.sender, randNounce)) */\n      0x1\n      swap1\n      div\n        /* \"ZombieAttack.sol\":411:461  uint(keccak256(now, msg.sender, randNounce)) % 100 */\n      dup2\n      iszero\n      iszero\n      tag_100\n      jumpi\n      invalid\n    tag_100:\n      mod\n        /* \"ZombieAttack.sol\":397:461  uint random = uint(keccak256(now, msg.sender, randNounce)) % 100 */\n      swap1\n      pop\n        /* \"ZombieAttack.sol\":471:481  randNounce */\n      0x8\n      0x0\n        /* \"ZombieAttack.sol\":471:483  randNounce++ */\n      dup2\n      sload\n      dup1\n      swap3\n      swap2\n      swap1\n      0x1\n      add\n      swap2\n      swap1\n      pop\n      sstore\n      pop\n        /* \"ZombieAttack.sol\":505:507  70 */\n      0x46\n        /* \"ZombieAttack.sol\":496:502  random */\n      dup2\n        /* \"ZombieAttack.sol\":496:507  random < 70 */\n      lt\n        /* \"ZombieAttack.sol\":493:897  if(random < 70) {... */\n      iszero\n      tag_101\n      jumpi\n        /* \"ZombieAttack.sol\":551:558  zombies */\n      0x3\n        /* \"ZombieAttack.sol\":559:569  attackerId */\n      dup4\n        /* \"ZombieAttack.sol\":551:570  zombies[attackerId] */\n      dup2\n      sload\n      dup2\n      lt\n      iszero\n      iszero\n      tag_102\n      jumpi\n      invalid\n    tag_102:\n      swap1\n      0x0\n      mstore\n      keccak256(0x0, 0x20)\n      swap1\n      0x3\n      mul\n      add\n        /* \"ZombieAttack.sol\":551:579  zombies[attackerId].winCount */\n      0x1\n      add\n      0x8\n        /* \"ZombieAttack.sol\":551:581  zombies[attackerId].winCount++ */\n      dup2\n      dup2\n      swap1\n      sload\n      swap1\n      0x100\n      exp\n      swap1\n      div\n      0xffffffff\n      and\n      dup1\n      swap3\n      swap2\n      swap1\n      0x1\n      add\n      swap2\n      swap1\n      0x100\n      exp\n      dup2\n      sload\n      dup2\n      0xffffffff\n      mul\n      not\n      and\n      swap1\n      dup4\n      0xffffffff\n      and\n      mul\n      or\n      swap1\n      sstore\n      pop\n      pop\n        /* \"ZombieAttack.sol\":595:602  zombies */\n      0x3\n        /* \"ZombieAttack.sol\":603:613  attackerId */\n      dup4\n        /* \"ZombieAttack.sol\":595:614  zombies[attackerId] */\n      dup2\n      sload\n      dup2\n      lt\n      iszero\n      iszero\n      tag_104\n      jumpi\n      invalid\n    tag_104:\n      swap1\n      0x0\n      mstore\n      keccak256(0x0, 0x20)\n      swap1\n      0x3\n      mul\n      add\n        /* \"ZombieAttack.sol\":595:620  zombies[attackerId].level */\n      0x1\n      add\n      0x0\n        /* \"ZombieAttack.sol\":595:622  zombies[attackerId].level++ */\n      dup2\n      dup2\n      swap1\n      sload\n      swap1\n      0x100\n      exp\n      swap1\n      div\n      0xffffffff\n      and\n      dup1\n      swap3\n      swap2\n      swap1\n      0x1\n      add\n      swap2\n      swap1\n      0x100\n      exp\n      dup2\n      sload\n      dup2\n      0xffffffff\n      mul\n      not\n      and\n      swap1\n      dup4\n      0xffffffff\n      and\n      mul\n      or\n      swap1\n      sstore\n      pop\n      pop\n        /* \"ZombieAttack.sol\":636:688  feedAndMultiply(attackerId, zombies[defenderId].dna) */\n      tag_106\n        /* \"ZombieAttack.sol\":652:662  attackerId */\n      dup4\n        /* \"ZombieAttack.sol\":664:671  zombies */\n      0x3\n        /* \"ZombieAttack.sol\":672:682  defenderId */\n      dup5\n        /* \"ZombieAttack.sol\":664:683  zombies[defenderId] */\n      dup2\n      sload\n      dup2\n      lt\n      iszero\n      iszero\n      tag_107\n      jumpi\n      invalid\n    tag_107:\n      swap1\n      0x0\n      mstore\n      keccak256(0x0, 0x20)\n      swap1\n      0x3\n      mul\n      add\n        /* \"ZombieAttack.sol\":664:687  zombies[defenderId].dna */\n      0x0\n      add\n      sload\n        /* \"ZombieAttack.sol\":636:651  feedAndMultiply */\n      tag_109\n        /* \"ZombieAttack.sol\":636:688  feedAndMultiply(attackerId, zombies[defenderId].dna) */\n      jump\t// in\n    tag_106:\n        /* \"ZombieAttack.sol\":702:709  zombies */\n      0x3\n        /* \"ZombieAttack.sol\":710:720  defenderId */\n      dup3\n        /* \"ZombieAttack.sol\":702:721  zombies[defenderId] */\n      dup2\n      sload\n      dup2\n      lt\n      iszero\n      iszero\n      tag_110\n      jumpi\n      invalid\n    tag_110:\n      swap1\n      0x0\n      mstore\n      keccak256(0x0, 0x20)\n      swap1\n      0x3\n      mul\n      add\n        /* \"ZombieAttack.sol\":702:731  zombies[defenderId].lossCount */\n      0x1\n      add\n      0xc\n        /* \"ZombieAttack.sol\":702:733  zombies[defenderId].lossCount++ */\n      dup2\n      dup2\n      swap1\n      sload\n      swap1\n      0x100\n      exp\n      swap1\n      div\n      0xffffffff\n      and\n      dup1\n      swap3\n      swap2\n      swap1\n      0x1\n      add\n      swap2\n      swap1\n      0x100\n      exp\n      dup2\n      sload\n      dup2\n      0xffffffff\n      mul\n      not\n      and\n      swap1\n      dup4\n      0xffffffff\n      and\n      mul\n      or\n      swap1\n      sstore\n      pop\n      pop\n        /* \"ZombieAttack.sol\":493:897  if(random < 70) {... */\n      jump(tag_112)\n    tag_101:\n        /* \"ZombieAttack.sol\":771:778  zombies */\n      0x3\n        /* \"ZombieAttack.sol\":779:789  attackerId */\n      dup4\n        /* \"ZombieAttack.sol\":771:790  zombies[attackerId] */\n      dup2\n      sload\n      dup2\n      lt\n      iszero\n      iszero\n      tag_113\n      jumpi\n      invalid\n    tag_113:\n      swap1\n      0x0\n      mstore\n      keccak256(0x0, 0x20)\n      swap1\n      0x3\n      mul\n      add\n        /* \"ZombieAttack.sol\":771:800  zombies[attackerId].lossCount */\n      0x1\n      add\n      0xc\n        /* \"ZombieAttack.sol\":771:802  zombies[attackerId].lossCount++ */\n      dup2\n      dup2\n      swap1\n      sload\n      swap1\n      0x100\n      exp\n      swap1\n      div\n      0xffffffff\n      and\n      dup1\n      swap3\n      swap2\n      swap1\n      0x1\n      add\n      swap2\n      swap1\n      0x100\n      exp\n      dup2\n      sload\n      dup2\n      0xffffffff\n      mul\n      not\n      and\n      swap1\n      dup4\n      0xffffffff\n      and\n      mul\n      or\n      swap1\n      sstore\n      pop\n      pop\n        /* \"ZombieAttack.sol\":816:823  zombies */\n      0x3\n        /* \"ZombieAttack.sol\":824:834  defenderId */\n      dup3\n        /* \"ZombieAttack.sol\":816:835  zombies[defenderId] */\n      dup2\n      sload\n      dup2\n      lt\n      iszero\n      iszero\n      tag_115\n      jumpi\n      invalid\n    tag_115:\n      swap1\n      0x0\n      mstore\n      keccak256(0x0, 0x20)\n      swap1\n      0x3\n      mul\n      add\n        /* \"ZombieAttack.sol\":816:844  zombies[defenderId].winCount */\n      0x1\n      add\n      0x8\n        /* \"ZombieAttack.sol\":816:846  zombies[defenderId].winCount++ */\n      dup2\n      dup2\n      swap1\n      sload\n      swap1\n      0x100\n      exp\n      swap1\n      div\n      0xffffffff\n      and\n      dup1\n      swap3\n      swap2\n      swap1\n      0x1\n      add\n      swap2\n      swap1\n      0x100\n      exp\n      dup2\n      sload\n      dup2\n      0xffffffff\n      mul\n      not\n      and\n      swap1\n      dup4\n      0xffffffff\n      and\n      mul\n      or\n      swap1\n      sstore\n      pop\n      pop\n        /* \"ZombieAttack.sol\":860:886  _refreshZombie(attackerId) */\n      tag_117\n        /* \"ZombieAttack.sol\":875:885  attackerId */\n      dup4\n        /* \"ZombieAttack.sol\":860:874  _refreshZombie */\n      tag_118\n        /* \"ZombieAttack.sol\":860:886  _refreshZombie(attackerId) */\n      jump\t// in\n    tag_117:\n        /* \"ZombieAttack.sol\":493:897  if(random < 70) {... */\n    tag_112:\n        /* \"ZombieAttack.sol\":159:903  function doAttack(uint attackerId, uint defenderId) {... */\n      pop\n      pop\n      pop\n      jump\t// out\n        /* \"ZombieHelper.sol\":264:458  function changeName(uint _zombieId, string _newName) external aboveLevel(2,_zombieId) {... */\n    tag_54:\n        /* \"ZombieHelper.sol\":337:338  2 */\n      0x2\n        /* \"ZombieHelper.sol\":339:348  _zombieId */\n      dup4\n        /* \"ZombieHelper.sol\":197:203  _level */\n      dup2\n        /* \"ZombieHelper.sol\":169:176  zombies */\n      0x3\n        /* \"ZombieHelper.sol\":177:186  _zombieId */\n      dup3\n        /* \"ZombieHelper.sol\":169:187  zombies[_zombieId] */\n      dup2\n      sload\n      dup2\n      lt\n      iszero\n      iszero\n      tag_120\n      jumpi\n      invalid\n    tag_120:\n      swap1\n      0x0\n      mstore\n      keccak256(0x0, 0x20)\n      swap1\n      0x3\n      mul\n      add\n        /* \"ZombieHelper.sol\":169:193  zombies[_zombieId].level */\n      0x1\n      add\n      0x0\n      swap1\n      sload\n      swap1\n      0x100\n      exp\n      swap1\n      div\n      0xffffffff\n      and\n        /* \"ZombieHelper.sol\":169:203  zombies[_zombieId].level >= _level */\n      0xffffffff\n      and\n      lt\n      iszero\n        /* \"ZombieHelper.sol\":161:204  require(zombies[_zombieId].level >= _level) */\n      iszero\n      iszero\n      tag_122\n      jumpi\n      0x0\n      dup1\n      revert\n    tag_122:\n        /* \"ZombieHelper.sol\":396:406  msg.sender */\n      caller\n        /* \"ZombieHelper.sol\":368:406  zombieToOwner[_zombieId] == msg.sender */\n      0xffffffffffffffffffffffffffffffffffffffff\n      and\n        /* \"ZombieHelper.sol\":368:381  zombieToOwner */\n      0x5\n        /* \"ZombieHelper.sol\":368:392  zombieToOwner[_zombieId] */\n      0x0\n        /* \"ZombieHelper.sol\":382:391  _zombieId */\n      dup8\n        /* \"ZombieHelper.sol\":368:392  zombieToOwner[_zombieId] */\n      dup2\n      mstore\n      0x20\n      add\n      swap1\n      dup2\n      mstore\n      0x20\n      add\n      0x0\n      keccak256\n      0x0\n      swap1\n      sload\n      swap1\n      0x100\n      exp\n      swap1\n      div\n      0xffffffffffffffffffffffffffffffffffffffff\n      and\n        /* \"ZombieHelper.sol\":368:406  zombieToOwner[_zombieId] == msg.sender */\n      0xffffffffffffffffffffffffffffffffffffffff\n      and\n      eq\n        /* \"ZombieHelper.sol\":360:407  require(zombieToOwner[_zombieId] == msg.sender) */\n      iszero\n      iszero\n      tag_124\n      jumpi\n      0x0\n      dup1\n      revert\n    tag_124:\n        /* \"ZombieHelper.sol\":443:451  _newName */\n      dup4\n      dup4\n        /* \"ZombieHelper.sol\":417:424  zombies */\n      0x3\n        /* \"ZombieHelper.sol\":425:434  _zombieId */\n      dup8\n        /* \"ZombieHelper.sol\":417:435  zombies[_zombieId] */\n      dup2\n      sload\n      dup2\n      lt\n      iszero\n      iszero\n      tag_125\n      jumpi\n      invalid\n    tag_125:\n      swap1\n      0x0\n      mstore\n      keccak256(0x0, 0x20)\n      swap1\n      0x3\n      mul\n      add\n        /* \"ZombieHelper.sol\":417:440  zombies[_zombieId].name */\n      0x2\n      add\n        /* \"ZombieHelper.sol\":417:451  zombies[_zombieId].name = _newName */\n      swap2\n      swap1\n      tag_127\n      swap3\n      swap2\n      swap1\n      jump\t// in(tag_128)\n    tag_127:\n      pop\n        /* \"ZombieHelper.sol\":264:458  function changeName(uint _zombieId, string _newName) external aboveLevel(2,_zombieId) {... */\n      pop\n      pop\n      pop\n      pop\n      pop\n      jump\t// out\n        /* \"ZombieHelper.sol\":1272:1359  function setLevelUpFee(uint _fee) external onlyOwner {... */\n    tag_57:\n        /* \"ownable.sol\":640:645  owner */\n      0x0\n      dup1\n      swap1\n      sload\n      swap1\n      0x100\n      exp\n      swap1\n      div\n      0xffffffffffffffffffffffffffffffffffffffff\n      and\n        /* \"ownable.sol\":626:645  msg.sender == owner */\n      0xffffffffffffffffffffffffffffffffffffffff\n      and\n        /* \"ownable.sol\":626:636  msg.sender */\n      caller\n        /* \"ownable.sol\":626:645  msg.sender == owner */\n      0xffffffffffffffffffffffffffffffffffffffff\n      and\n      eq\n        /* \"ownable.sol\":618:646  require(msg.sender == owner) */\n      iszero\n      iszero\n      tag_130\n      jumpi\n      0x0\n      dup1\n      revert\n    tag_130:\n        /* \"ZombieHelper.sol\":1348:1352  _fee */\n      dup1\n        /* \"ZombieHelper.sol\":1335:1345  levelUpFee */\n      0x7\n        /* \"ZombieHelper.sol\":1335:1352  levelUpFee = _fee */\n      dup2\n      swap1\n      sstore\n      pop\n        /* \"ZombieHelper.sol\":1272:1359  function setLevelUpFee(uint _fee) external onlyOwner {... */\n      pop\n      jump\t// out\n        /* \"ownable.sol\":816:983  function transferOwnership(address newOwner) public onlyOwner {... */\n    tag_60:\n        /* \"ownable.sol\":640:645  owner */\n      0x0\n      dup1\n      swap1\n      sload\n      swap1\n      0x100\n      exp\n      swap1\n      div\n      0xffffffffffffffffffffffffffffffffffffffff\n      and\n        /* \"ownable.sol\":626:645  msg.sender == owner */\n      0xffffffffffffffffffffffffffffffffffffffff\n      and\n        /* \"ownable.sol\":626:636  msg.sender */\n      caller\n        /* \"ownable.sol\":626:645  msg.sender == owner */\n      0xffffffffffffffffffffffffffffffffffffffff\n      and\n      eq\n        /* \"ownable.sol\":618:646  require(msg.sender == owner) */\n      iszero\n      iszero\n      tag_133\n      jumpi\n      0x0\n      dup1\n      revert\n    tag_133:\n        /* \"ownable.sol\":912:913  0 */\n      0x0\n        /* \"ownable.sol\":892:914  newOwner != address(0) */\n      0xffffffffffffffffffffffffffffffffffffffff\n      and\n        /* \"ownable.sol\":892:900  newOwner */\n      dup2\n        /* \"ownable.sol\":892:914  newOwner != address(0) */\n      0xffffffffffffffffffffffffffffffffffffffff\n      and\n      eq\n      iszero\n        /* \"ownable.sol\":884:915  require(newOwner != address(0)) */\n      iszero\n      iszero\n      tag_135\n      jumpi\n      0x0\n      dup1\n      revert\n    tag_135:\n        /* \"ownable.sol\":949:957  newOwner */\n      dup1\n        /* \"ownable.sol\":921:958  OwnershipTransferred(owner, newOwner) */\n      0xffffffffffffffffffffffffffffffffffffffff\n      and\n        /* \"ownable.sol\":942:947  owner */\n      0x0\n      dup1\n      swap1\n      sload\n      swap1\n      0x100\n      exp\n      swap1\n      div\n      0xffffffffffffffffffffffffffffffffffffffff\n      and\n        /* \"ownable.sol\":921:958  OwnershipTransferred(owner, newOwner) */\n      0xffffffffffffffffffffffffffffffffffffffff\n      and\n      0x8be0079c531659141344cd1fd0a4f28419497f9722a3daafe3b4186f6b6457e0\n      mload(0x40)\n      mload(0x40)\n      dup1\n      swap2\n      sub\n      swap1\n      log3\n        /* \"ownable.sol\":972:980  newOwner */\n      dup1\n        /* \"ownable.sol\":964:969  owner */\n      0x0\n      dup1\n        /* \"ownable.sol\":964:980  owner = newOwner */\n      0x100\n      exp\n      dup2\n      sload\n      dup2\n      0xffffffffffffffffffffffffffffffffffffffff\n      mul\n      not\n      and\n      swap1\n      dup4\n      0xffffffffffffffffffffffffffffffffffffffff\n      and\n      mul\n      or\n      swap1\n      sstore\n      pop\n        /* \"ownable.sol\":816:983  function transferOwnership(address newOwner) public onlyOwner {... */\n      pop\n      jump\t// out\n        /* \"ZombieFeeding.sol\":757:919  function feedOnHuman(uint _zombieId, uint _humanId) public {... */\n    tag_63:\n        /* \"ZombieFeeding.sol\":826:840  uint _humanDna */\n      0x0\n        /* \"ZombieFeeding.sol\":843:865  _catchAHuman(_humanId) */\n      tag_137\n        /* \"ZombieFeeding.sol\":856:864  _humanId */\n      dup3\n        /* \"ZombieFeeding.sol\":843:855  _catchAHuman */\n      tag_138\n        /* \"ZombieFeeding.sol\":843:865  _catchAHuman(_humanId) */\n      jump\t// in\n    tag_137:\n        /* \"ZombieFeeding.sol\":826:865  uint _humanDna = _catchAHuman(_humanId) */\n      swap1\n      pop\n        /* \"ZombieFeeding.sol\":875:912  feedAndMultiply(_zombieId, _humanDna) */\n      tag_139\n        /* \"ZombieFeeding.sol\":891:900  _zombieId */\n      dup4\n        /* \"ZombieFeeding.sol\":902:911  _humanDna */\n      dup3\n        /* \"ZombieFeeding.sol\":875:890  feedAndMultiply */\n      tag_109\n        /* \"ZombieFeeding.sol\":875:912  feedAndMultiply(_zombieId, _humanDna) */\n      jump\t// in\n    tag_139:\n        /* \"ZombieFeeding.sol\":757:919  function feedOnHuman(uint _zombieId, uint _humanId) public {... */\n      pop\n      pop\n      pop\n      jump\t// out\n        /* \"ZombieFactory.sol\":782:909  function _generateRandomDna(string _str) private view returns (uint) {... */\n    tag_95:\n        /* \"ZombieFactory.sol\":845:849  uint */\n      0x0\n        /* \"ZombieFactory.sol\":892:902  dnaModulus */\n      sload(0x2)\n        /* \"ZombieFactory.sol\":883:887  _str */\n      dup3\n        /* \"ZombieFactory.sol\":873:888  keccak256(_str) */\n      mload(0x40)\n      dup1\n      dup3\n      dup1\n      mload\n      swap1\n      0x20\n      add\n      swap1\n      dup1\n      dup4\n      dup4\n        /* \"--CODEGEN--\":36:189   */\n    tag_141:\n        /* \"--CODEGEN--\":66:68   */\n      0x20\n        /* \"--CODEGEN--\":61:64   */\n      dup4\n        /* \"--CODEGEN--\":58:69   */\n      lt\n        /* \"--CODEGEN--\":51:70   */\n      iszero\n        /* \"--CODEGEN--\":36:189   */\n      iszero\n      tag_142\n      jumpi\n        /* \"--CODEGEN--\":182:185   */\n      dup1\n        /* \"--CODEGEN--\":176:186   */\n      mload\n        /* \"--CODEGEN--\":171:174   */\n      dup3\n        /* \"--CODEGEN--\":164:187   */\n      mstore\n        /* \"--CODEGEN--\":98:100   */\n      0x20\n        /* \"--CODEGEN--\":93:96   */\n      dup3\n        /* \"--CODEGEN--\":89:101   */\n      add\n        /* \"--CODEGEN--\":82:101   */\n      swap2\n      pop\n        /* \"--CODEGEN--\":123:125   */\n      0x20\n        /* \"--CODEGEN--\":118:121   */\n      dup2\n        /* \"--CODEGEN--\":114:126   */\n      add\n        /* \"--CODEGEN--\":107:126   */\n      swap1\n      pop\n        /* \"--CODEGEN--\":148:150   */\n      0x20\n        /* \"--CODEGEN--\":143:146   */\n      dup4\n        /* \"--CODEGEN--\":139:151   */\n      sub\n        /* \"--CODEGEN--\":132:151   */\n      swap3\n      pop\n        /* \"--CODEGEN--\":36:189   */\n      jump(tag_141)\n    tag_142:\n        /* \"--CODEGEN--\":274:275   */\n      0x1\n        /* \"--CODEGEN--\":267:270   */\n      dup4\n        /* \"--CODEGEN--\":263:265   */\n      0x20\n        /* \"--CODEGEN--\":259:271   */\n      sub\n        /* \"--CODEGEN--\":254:257   */\n      0x100\n        /* \"--CODEGEN--\":250:272   */\n      exp\n        /* \"--CODEGEN--\":246:276   */\n      sub\n        /* \"--CODEGEN--\":315:319   */\n      dup1\n        /* \"--CODEGEN--\":311:320   */\n      not\n        /* \"--CODEGEN--\":305:308   */\n      dup3\n        /* \"--CODEGEN--\":299:309   */\n      mload\n        /* \"--CODEGEN--\":295:321   */\n      and\n        /* \"--CODEGEN--\":356:360   */\n      dup2\n        /* \"--CODEGEN--\":350:353   */\n      dup5\n        /* \"--CODEGEN--\":344:354   */\n      mload\n        /* \"--CODEGEN--\":340:361   */\n      and\n        /* \"--CODEGEN--\":389:396   */\n      dup1\n        /* \"--CODEGEN--\":380:387   */\n      dup3\n        /* \"--CODEGEN--\":377:397   */\n      or\n        /* \"--CODEGEN--\":372:375   */\n      dup6\n        /* \"--CODEGEN--\":365:398   */\n      mstore\n        /* \"--CODEGEN--\":3:402   */\n      pop\n      pop\n      pop\n        /* \"ZombieFactory.sol\":873:888  keccak256(_str) */\n      pop\n      pop\n      pop\n      swap1\n      pop\n      add\n      swap2\n      pop\n      pop\n      mload(0x40)\n      dup1\n      swap2\n      sub\n      swap1\n      keccak256\n        /* \"ZombieFactory.sol\":868:889  uint(keccak256(_str)) */\n      0x1\n      swap1\n      div\n        /* \"ZombieFactory.sol\":868:902  uint(keccak256(_str)) % dnaModulus */\n      dup2\n      iszero\n      iszero\n      tag_144\n      jumpi\n      invalid\n    tag_144:\n      mod\n        /* \"ZombieFactory.sol\":861:902  return uint(keccak256(_str)) % dnaModulus */\n      swap1\n      pop\n        /* \"ZombieFactory.sol\":782:909  function _generateRandomDna(string _str) private view returns (uint) {... */\n      swap2\n      swap1\n      pop\n      jump\t// out\n        /* \"ZombieFactory.sol\":466:776  function _createZombie(string _name, uint _dna) internal {... */\n    tag_97:\n        /* \"ZombieFactory.sol\":533:547  uint _zombieId */\n      0x0\n        /* \"ZombieFactory.sol\":604:605  1 */\n      0x1\n        /* \"ZombieFactory.sol\":550:557  zombies */\n      0x3\n        /* \"ZombieFactory.sol\":563:600  Zombie(_dna,1, uint32(now),0,0,_name) */\n      0xc0\n      mload(0x40)\n      swap1\n      dup2\n      add\n      0x40\n      mstore\n      dup1\n        /* \"ZombieFactory.sol\":570:574  _dna */\n      dup6\n        /* \"ZombieFactory.sol\":563:600  Zombie(_dna,1, uint32(now),0,0,_name) */\n      dup2\n      mstore\n      0x20\n      add\n        /* \"ZombieFactory.sol\":575:576  1 */\n      0x1\n        /* \"ZombieFactory.sol\":563:600  Zombie(_dna,1, uint32(now),0,0,_name) */\n      0xffffffff\n      and\n      dup2\n      mstore\n      0x20\n      add\n        /* \"ZombieFactory.sol\":585:588  now */\n      timestamp\n        /* \"ZombieFactory.sol\":563:600  Zombie(_dna,1, uint32(now),0,0,_name) */\n      0xffffffff\n      and\n      dup2\n      mstore\n      0x20\n      add\n        /* \"ZombieFactory.sol\":590:591  0 */\n      0x0\n        /* \"ZombieFactory.sol\":563:600  Zombie(_dna,1, uint32(now),0,0,_name) */\n      0xffffffff\n      and\n      dup2\n      mstore\n      0x20\n      add\n        /* \"ZombieFactory.sol\":592:593  0 */\n      0x0\n        /* \"ZombieFactory.sol\":563:600  Zombie(_dna,1, uint32(now),0,0,_name) */\n      0xffffffff\n      and\n      dup2\n      mstore\n      0x20\n      add\n        /* \"ZombieFactory.sol\":594:599  _name */\n      dup7\n        /* \"ZombieFactory.sol\":563:600  Zombie(_dna,1, uint32(now),0,0,_name) */\n      dup2\n      mstore\n      pop\n        /* \"ZombieFactory.sol\":550:601  zombies.push(Zombie(_dna,1, uint32(now),0,0,_name)) */\n      swap1\n      dup1\n        /* \"--CODEGEN--\":39:40   */\n      0x1\n        /* \"--CODEGEN--\":33:36   */\n      dup2\n        /* \"--CODEGEN--\":27:37   */\n      sload\n        /* \"--CODEGEN--\":23:41   */\n      add\n        /* \"--CODEGEN--\":57:67   */\n      dup1\n        /* \"--CODEGEN--\":52:55   */\n      dup3\n        /* \"--CODEGEN--\":45:68   */\n      sstore\n        /* \"--CODEGEN--\":79:89   */\n      dup1\n        /* \"--CODEGEN--\":72:89   */\n      swap2\n      pop\n        /* \"--CODEGEN--\":0:93   */\n      pop\n        /* \"ZombieFactory.sol\":550:601  zombies.push(Zombie(_dna,1, uint32(now),0,0,_name)) */\n      swap1\n      0x1\n      dup3\n      sub\n      swap1\n      0x0\n      mstore\n      keccak256(0x0, 0x20)\n      swap1\n      0x3\n      mul\n      add\n      0x0\n      swap1\n      swap2\n      swap3\n      swap1\n      swap2\n      swap1\n      swap2\n      pop\n      0x0\n      dup3\n      add\n      mload\n      dup2\n      0x0\n      add\n      sstore\n      0x20\n      dup3\n      add\n      mload\n      dup2\n      0x1\n      add\n      exp(0x100, 0x0)\n      dup2\n      sload\n      dup2\n      0xffffffff\n      mul\n      not\n      and\n      swap1\n      dup4\n      0xffffffff\n      and\n      mul\n      or\n      swap1\n      sstore\n      pop\n      0x40\n      dup3\n      add\n      mload\n      dup2\n      0x1\n      add\n      exp(0x100, 0x4)\n      dup2\n      sload\n      dup2\n      0xffffffff\n      mul\n      not\n      and\n      swap1\n      dup4\n      0xffffffff\n      and\n      mul\n      or\n      swap1\n      sstore\n      pop\n      0x60\n      dup3\n      add\n      mload\n      dup2\n      0x1\n      add\n      exp(0x100, 0x8)\n      dup2\n      sload\n      dup2\n      0xffffffff\n      mul\n      not\n      and\n      swap1\n      dup4\n      0xffffffff\n      and\n      mul\n      or\n      swap1\n      sstore\n      pop\n      0x80\n      dup3\n      add\n      mload\n      dup2\n      0x1\n      add\n      exp(0x100, 0xc)\n      dup2\n      sload\n      dup2\n      0xffffffff\n      mul\n      not\n      and\n      swap1\n      dup4\n      0xffffffff\n      and\n      mul\n      or\n      swap1\n      sstore\n      pop\n      0xa0\n      dup3\n      add\n      mload\n      dup2\n      0x2\n      add\n      swap1\n      dup1\n      mload\n      swap1\n      0x20\n      add\n      swap1\n      tag_147\n      swap3\n      swap2\n      swap1\n      jump\t// in(tag_148)\n    tag_147:\n      pop\n      pop\n      pop\n        /* \"ZombieFactory.sol\":550:605  zombies.push(Zombie(_dna,1, uint32(now),0,0,_name)) - 1 */\n      sub\n        /* \"ZombieFactory.sol\":533:605  uint _zombieId = zombies.push(Zombie(_dna,1, uint32(now),0,0,_name)) - 1 */\n      swap1\n      pop\n        /* \"ZombieFactory.sol\":676:686  msg.sender */\n      caller\n        /* \"ZombieFactory.sol\":649:662  zombieToOwner */\n      0x5\n        /* \"ZombieFactory.sol\":649:673  zombieToOwner[_zombieId] */\n      0x0\n        /* \"ZombieFactory.sol\":663:672  _zombieId */\n      dup4\n        /* \"ZombieFactory.sol\":649:673  zombieToOwner[_zombieId] */\n      dup2\n      mstore\n      0x20\n      add\n      swap1\n      dup2\n      mstore\n      0x20\n      add\n      0x0\n      keccak256\n      0x0\n        /* \"ZombieFactory.sol\":649:686  zombieToOwner[_zombieId] = msg.sender */\n      0x100\n      exp\n      dup2\n      sload\n      dup2\n      0xffffffffffffffffffffffffffffffffffffffff\n      mul\n      not\n      and\n      swap1\n      dup4\n      0xffffffffffffffffffffffffffffffffffffffff\n      and\n      mul\n      or\n      swap1\n      sstore\n      pop\n        /* \"ZombieFactory.sol\":696:712  ownerZombieCount */\n      0x6\n        /* \"ZombieFactory.sol\":696:724  ownerZombieCount[msg.sender] */\n      0x0\n        /* \"ZombieFactory.sol\":713:723  msg.sender */\n      caller\n        /* \"ZombieFactory.sol\":696:724  ownerZombieCount[msg.sender] */\n      0xffffffffffffffffffffffffffffffffffffffff\n      and\n      0xffffffffffffffffffffffffffffffffffffffff\n      and\n      dup2\n      mstore\n      0x20\n      add\n      swap1\n      dup2\n      mstore\n      0x20\n      add\n      0x0\n      keccak256\n      0x0\n        /* \"ZombieFactory.sol\":696:726  ownerZombieCount[msg.sender]++ */\n      dup2\n      sload\n      dup1\n      swap3\n      swap2\n      swap1\n      0x1\n      add\n      swap2\n      swap1\n      pop\n      sstore\n      pop\n        /* \"ZombieFactory.sol\":736:769  NewZombie(_zombieId, _name, _dna) */\n      0x88f026aacbbecc90c18411df4b1185fd8d9be2470f1962f192bf84a27d0704b7\n        /* \"ZombieFactory.sol\":746:755  _zombieId */\n      dup2\n        /* \"ZombieFactory.sol\":757:762  _name */\n      dup5\n        /* \"ZombieFactory.sol\":764:768  _dna */\n      dup5\n        /* \"ZombieFactory.sol\":736:769  NewZombie(_zombieId, _name, _dna) */\n      mload(0x40)\n      dup1\n      dup5\n      dup2\n      mstore\n      0x20\n      add\n      dup1\n      0x20\n      add\n      dup4\n      dup2\n      mstore\n      0x20\n      add\n      dup3\n      dup2\n      sub\n      dup3\n      mstore\n      dup5\n      dup2\n      dup2\n      mload\n      dup2\n      mstore\n      0x20\n      add\n      swap2\n      pop\n      dup1\n      mload\n      swap1\n      0x20\n      add\n      swap1\n      dup1\n      dup4\n      dup4\n        /* \"--CODEGEN--\":23:24   */\n      0x0\n        /* \"--CODEGEN--\":8:108   */\n    tag_149:\n        /* \"--CODEGEN--\":33:36   */\n      dup4\n        /* \"--CODEGEN--\":30:31   */\n      dup2\n        /* \"--CODEGEN--\":27:37   */\n      lt\n        /* \"--CODEGEN--\":8:108   */\n      iszero\n      tag_150\n      jumpi\n        /* \"--CODEGEN--\":99:100   */\n      dup1\n        /* \"--CODEGEN--\":94:97   */\n      dup3\n        /* \"--CODEGEN--\":90:101   */\n      add\n        /* \"--CODEGEN--\":84:102   */\n      mload\n        /* \"--CODEGEN--\":80:81   */\n      dup2\n        /* \"--CODEGEN--\":75:78   */\n      dup5\n        /* \"--CODEGEN--\":71:82   */\n      add\n        /* \"--CODEGEN--\":64:103   */\n      mstore\n        /* \"--CODEGEN--\":52:54   */\n      0x20\n        /* \"--CODEGEN--\":49:50   */\n      dup2\n        /* \"--CODEGEN--\":45:55   */\n      add\n        /* \"--CODEGEN--\":40:55   */\n      swap1\n      pop\n        /* \"--CODEGEN--\":8:108   */\n      jump(tag_149)\n    tag_150:\n        /* \"--CODEGEN--\":12:26   */\n      pop\n        /* \"ZombieFactory.sol\":736:769  NewZombie(_zombieId, _name, _dna) */\n      pop\n      pop\n      pop\n      swap1\n      pop\n      swap1\n      dup2\n      add\n      swap1\n      0x1f\n      and\n      dup1\n      iszero\n      tag_152\n      jumpi\n      dup1\n      dup3\n      sub\n      dup1\n      mload\n      0x1\n      dup4\n      0x20\n      sub\n      0x100\n      exp\n      sub\n      not\n      and\n      dup2\n      mstore\n      0x20\n      add\n      swap2\n      pop\n    tag_152:\n      pop\n      swap5\n      pop\n      pop\n      pop\n      pop\n      pop\n      mload(0x40)\n      dup1\n      swap2\n      sub\n      swap1\n      log1\n        /* \"ZombieFactory.sol\":466:776  function _createZombie(string _name, uint _dna) internal {... */\n      pop\n      pop\n      pop\n      jump\t// out\n        /* \"ZombieFeeding.sol\":103:610  function feedAndMultiply (uint _zombieId, uint _targetDna) internal  {... */\n    tag_109:\n        /* \"ZombieFeeding.sol\":240:263  Zombie storage myZombie */\n      0x0\n        /* \"ZombieFeeding.sol\":348:365  uint _targetSlice */\n      dup1\n        /* \"ZombieFeeding.sol\":401:413  uint _newDna */\n      0x0\n        /* \"ZombieFeeding.sol\":459:472  uint _newZDna */\n      dup1\n        /* \"ZombieFeeding.sol\":218:228  msg.sender */\n      caller\n        /* \"ZombieFeeding.sol\":190:228  zombieToOwner[_zombieId] == msg.sender */\n      0xffffffffffffffffffffffffffffffffffffffff\n      and\n        /* \"ZombieFeeding.sol\":190:203  zombieToOwner */\n      0x5\n        /* \"ZombieFeeding.sol\":190:214  zombieToOwner[_zombieId] */\n      0x0\n        /* \"ZombieFeeding.sol\":204:213  _zombieId */\n      dup9\n        /* \"ZombieFeeding.sol\":190:214  zombieToOwner[_zombieId] */\n      dup2\n      mstore\n      0x20\n      add\n      swap1\n      dup2\n      mstore\n      0x20\n      add\n      0x0\n      keccak256\n      0x0\n      swap1\n      sload\n      swap1\n      0x100\n      exp\n      swap1\n      div\n      0xffffffffffffffffffffffffffffffffffffffff\n      and\n        /* \"ZombieFeeding.sol\":190:228  zombieToOwner[_zombieId] == msg.sender */\n      0xffffffffffffffffffffffffffffffffffffffff\n      and\n      eq\n        /* \"ZombieFeeding.sol\":182:229  require(zombieToOwner[_zombieId] == msg.sender) */\n      iszero\n      iszero\n      tag_154\n      jumpi\n      0x0\n      dup1\n      revert\n    tag_154:\n        /* \"ZombieFeeding.sol\":266:273  zombies */\n      0x3\n        /* \"ZombieFeeding.sol\":274:283  _zombieId */\n      dup7\n        /* \"ZombieFeeding.sol\":266:284  zombies[_zombieId] */\n      dup2\n      sload\n      dup2\n      lt\n      iszero\n      iszero\n      tag_155\n      jumpi\n      invalid\n    tag_155:\n      swap1\n      0x0\n      mstore\n      keccak256(0x0, 0x20)\n      swap1\n      0x3\n      mul\n      add\n        /* \"ZombieFeeding.sol\":240:284  Zombie storage myZombie = zombies[_zombieId] */\n      swap4\n      pop\n        /* \"ZombieFeeding.sol\":332:335  now */\n      timestamp\n        /* \"ZombieFeeding.sol\":303:336  myZombie.readyTime <= uint32(now) */\n      0xffffffff\n      and\n        /* \"ZombieFeeding.sol\":303:311  myZombie */\n      dup5\n        /* \"ZombieFeeding.sol\":303:321  myZombie.readyTime */\n      0x1\n      add\n      0x4\n      swap1\n      sload\n      swap1\n      0x100\n      exp\n      swap1\n      div\n      0xffffffff\n      and\n        /* \"ZombieFeeding.sol\":303:336  myZombie.readyTime <= uint32(now) */\n      0xffffffff\n      and\n      gt\n      iszero\n        /* \"ZombieFeeding.sol\":295:337  require(myZombie.readyTime <= uint32(now)) */\n      iszero\n      iszero\n      tag_157\n      jumpi\n      0x0\n      dup1\n      revert\n    tag_157:\n        /* \"ZombieFeeding.sol\":381:391  dnaModulus */\n      sload(0x2)\n        /* \"ZombieFeeding.sol\":368:378  _targetDna */\n      dup6\n        /* \"ZombieFeeding.sol\":368:391  _targetDna % dnaModulus */\n      dup2\n      iszero\n      iszero\n      tag_158\n      jumpi\n      invalid\n    tag_158:\n      mod\n        /* \"ZombieFeeding.sol\":348:391  uint _targetSlice = _targetDna % dnaModulus */\n      swap3\n      pop\n        /* \"ZombieFeeding.sol\":448:449  2 */\n      0x2\n        /* \"ZombieFeeding.sol\":432:444  _targetSlice */\n      dup4\n        /* \"ZombieFeeding.sol\":417:425  myZombie */\n      dup6\n        /* \"ZombieFeeding.sol\":417:429  myZombie.dna */\n      0x0\n      add\n      sload\n        /* \"ZombieFeeding.sol\":417:444  myZombie.dna + _targetSlice */\n      add\n        /* \"ZombieFeeding.sol\":416:449  (myZombie.dna + _targetSlice) / 2 */\n      dup2\n      iszero\n      iszero\n      tag_159\n      jumpi\n      invalid\n    tag_159:\n      div\n        /* \"ZombieFeeding.sol\":401:449  uint _newDna = (myZombie.dna + _targetSlice) / 2 */\n      swap2\n      pop\n        /* \"ZombieFeeding.sol\":503:505  99 */\n      0x63\n        /* \"ZombieFeeding.sol\":496:499  100 */\n      0x64\n        /* \"ZombieFeeding.sol\":486:493  _newDna */\n      dup4\n        /* \"ZombieFeeding.sol\":486:499  _newDna % 100 */\n      dup2\n      iszero\n      iszero\n      tag_160\n      jumpi\n      invalid\n    tag_160:\n      mod\n        /* \"ZombieFeeding.sol\":476:483  _newDna */\n      dup4\n        /* \"ZombieFeeding.sol\":476:499  _newDna - _newDna % 100 */\n      sub\n        /* \"ZombieFeeding.sol\":475:505  (_newDna - _newDna % 100) + 99 */\n      add\n        /* \"ZombieFeeding.sol\":459:505  uint _newZDna = (_newDna - _newDna % 100) + 99 */\n      swap1\n      pop\n        /* \"ZombieFeeding.sol\":515:548  _createZombie(\"No-one\", _newZDna) */\n      tag_161\n      0x40\n      dup1\n      mload\n      swap1\n      dup2\n      add\n      0x40\n      mstore\n      dup1\n      0x6\n      dup2\n      mstore\n      0x20\n      add\n      0x4e6f2d6f6e650000000000000000000000000000000000000000000000000000\n      dup2\n      mstore\n      pop\n        /* \"ZombieFeeding.sol\":539:547  _newZDna */\n      dup3\n        /* \"ZombieFeeding.sol\":515:528  _createZombie */\n      tag_97\n        /* \"ZombieFeeding.sol\":515:548  _createZombie(\"No-one\", _newZDna) */\n      jump\t// in\n    tag_161:\n        /* \"ZombieFeeding.sol\":590:602  cooldownTime */\n      sload(0x4)\n        /* \"ZombieFeeding.sol\":586:589  now */\n      timestamp\n        /* \"ZombieFeeding.sol\":586:602  now+cooldownTime */\n      add\n        /* \"ZombieFeeding.sol\":558:566  myZombie */\n      dup5\n        /* \"ZombieFeeding.sol\":558:576  myZombie.readyTime */\n      0x1\n      add\n      0x4\n        /* \"ZombieFeeding.sol\":558:603  myZombie.readyTime = uint32(now+cooldownTime) */\n      0x100\n      exp\n      dup2\n      sload\n      dup2\n      0xffffffff\n      mul\n      not\n      and\n      swap1\n      dup4\n      0xffffffff\n      and\n      mul\n      or\n      swap1\n      sstore\n      pop\n        /* \"ZombieFeeding.sol\":103:610  function feedAndMultiply (uint _zombieId, uint _targetDna) internal  {... */\n      pop\n      pop\n      pop\n      pop\n      pop\n      pop\n      jump\t// out\n        /* \"ZombieFeeding.sol\":925:1046  function _refreshZombie(uint _zombieId) internal {... */\n    tag_118:\n        /* \"ZombieFeeding.sol\":1026:1038  cooldownTime */\n      sload(0x4)\n        /* \"ZombieFeeding.sol\":1022:1025  now */\n      timestamp\n        /* \"ZombieFeeding.sol\":1022:1038  now+cooldownTime */\n      add\n        /* \"ZombieFeeding.sol\":984:991  zombies */\n      0x3\n        /* \"ZombieFeeding.sol\":992:1001  _zombieId */\n      dup3\n        /* \"ZombieFeeding.sol\":984:1002  zombies[_zombieId] */\n      dup2\n      sload\n      dup2\n      lt\n      iszero\n      iszero\n      tag_163\n      jumpi\n      invalid\n    tag_163:\n      swap1\n      0x0\n      mstore\n      keccak256(0x0, 0x20)\n      swap1\n      0x3\n      mul\n      add\n        /* \"ZombieFeeding.sol\":984:1012  zombies[_zombieId].readyTime */\n      0x1\n      add\n      0x4\n        /* \"ZombieFeeding.sol\":984:1039  zombies[_zombieId].readyTime = uint32(now+cooldownTime) */\n      0x100\n      exp\n      dup2\n      sload\n      dup2\n      0xffffffff\n      mul\n      not\n      and\n      swap1\n      dup4\n      0xffffffff\n      and\n      mul\n      or\n      swap1\n      sstore\n      pop\n        /* \"ZombieFeeding.sol\":925:1046  function _refreshZombie(uint _zombieId) internal {... */\n      pop\n      jump\t// out\n        /* \"ZombieFeeding.sol\":616:751  function _catchAHuman(uint _name) internal pure returns (uint) {... */\n    tag_138:\n        /* \"ZombieFeeding.sol\":673:677  uint */\n      0x0\n        /* \"ZombieFeeding.sol\":689:698  uint rand */\n      dup1\n        /* \"ZombieFeeding.sol\":716:721  _name */\n      dup3\n        /* \"ZombieFeeding.sol\":706:722  keccak256(_name) */\n      mload(0x40)\n      dup1\n      dup3\n      dup2\n      mstore\n      0x20\n      add\n      swap2\n      pop\n      pop\n      mload(0x40)\n      dup1\n      swap2\n      sub\n      swap1\n      keccak256\n        /* \"ZombieFeeding.sol\":701:723  uint(keccak256(_name)) */\n      0x1\n      swap1\n      div\n        /* \"ZombieFeeding.sol\":689:723  uint rand = uint(keccak256(_name)) */\n      swap1\n      pop\n        /* \"ZombieFeeding.sol\":740:744  rand */\n      dup1\n        /* \"ZombieFeeding.sol\":733:744  return rand */\n      swap2\n      pop\n        /* \"ZombieFeeding.sol\":616:751  function _catchAHuman(uint _name) internal pure returns (uint) {... */\n      pop\n      swap2\n      swap1\n      pop\n      jump\t// out\n        /* \"ZombieAttack.sol\":89:905  contract ZombieAttack is ZombieHelper {... */\n    tag_128:\n      dup3\n      dup1\n      sload\n      0x1\n      dup2\n      0x1\n      and\n      iszero\n      0x100\n      mul\n      sub\n      and\n      0x2\n      swap1\n      div\n      swap1\n      0x0\n      mstore\n      keccak256(0x0, 0x20)\n      swap1\n      0x1f\n      add\n      0x20\n      swap1\n      div\n      dup2\n      add\n      swap3\n      dup3\n      0x1f\n      lt\n      tag_167\n      jumpi\n      dup1\n      calldataload\n      not(0xff)\n      and\n      dup4\n      dup1\n      add\n      or\n      dup6\n      sstore\n      jump(tag_166)\n    tag_167:\n      dup3\n      dup1\n      add\n      0x1\n      add\n      dup6\n      sstore\n      dup3\n      iszero\n      tag_166\n      jumpi\n      swap2\n      dup3\n      add\n    tag_168:\n      dup3\n      dup2\n      gt\n      iszero\n      tag_169\n      jumpi\n      dup3\n      calldataload\n      dup3\n      sstore\n      swap2\n      0x20\n      add\n      swap2\n      swap1\n      0x1\n      add\n      swap1\n      jump(tag_168)\n    tag_169:\n    tag_166:\n      pop\n      swap1\n      pop\n      tag_170\n      swap2\n      swap1\n      jump\t// in(tag_171)\n    tag_170:\n      pop\n      swap1\n      jump\t// out\n    tag_148:\n      dup3\n      dup1\n      sload\n      0x1\n      dup2\n      0x1\n      and\n      iszero\n      0x100\n      mul\n      sub\n      and\n      0x2\n      swap1\n      div\n      swap1\n      0x0\n      mstore\n      keccak256(0x0, 0x20)\n      swap1\n      0x1f\n      add\n      0x20\n      swap1\n      div\n      dup2\n      add\n      swap3\n      dup3\n      0x1f\n      lt\n      tag_173\n      jumpi\n      dup1\n      mload\n      not(0xff)\n      and\n      dup4\n      dup1\n      add\n      or\n      dup6\n      sstore\n      jump(tag_172)\n    tag_173:\n      dup3\n      dup1\n      add\n      0x1\n      add\n      dup6\n      sstore\n      dup3\n      iszero\n      tag_172\n      jumpi\n      swap2\n      dup3\n      add\n    tag_174:\n      dup3\n      dup2\n      gt\n      iszero\n      tag_175\n      jumpi\n      dup3\n      mload\n      dup3\n      sstore\n      swap2\n      0x20\n      add\n      swap2\n      swap1\n      0x1\n      add\n      swap1\n      jump(tag_174)\n    tag_175:\n    tag_172:\n      pop\n      swap1\n      pop\n      tag_176\n      swap2\n      swap1\n      jump\t// in(tag_171)\n    tag_176:\n      pop\n      swap1\n      jump\t// out\n    tag_171:\n      tag_177\n      swap2\n      swap1\n    tag_178:\n      dup1\n      dup3\n      gt\n      iszero\n      tag_179\n      jumpi\n      0x0\n      dup2\n      0x0\n      swap1\n      sstore\n      pop\n      0x1\n      add\n      jump(tag_178)\n    tag_179:\n      pop\n      swap1\n      jump\n    tag_177:\n      swap1\n      jump\t// out\n\n    auxdata: 0xa165627a7a72305820a5600fa7db389a7de0be4d49700c0476598df82425294a591a36334bbf9d16760029\n}\n",
				"bytecode": {
					"linkReferences": {},
					"object": "60806040526010600155600154600a0a600255603c60045566038d7ea4c680006007556000600855336000806101000a81548173ffffffffffffffffffffffffffffffffffffffff021916908373ffffffffffffffffffffffffffffffffffffffff1602179055506116c4806100766000396000f3006080604052600436106100d0576000357c0100000000000000000000000000000000000000000000000000000000900463ffffffff16806301afd7e1146100d55780630ce90ec21461012c5780632052465e1461014c5780633ccfd60b146102455780634412e1041461025c578063528b7b8f146102f45780635faf2880146103615780637bff0a01146103985780638da5cb5b14610401578063a59fde5214610458578063c39cbef11461048f578063ccf670f8146104d4578063f2fde38b14610501578063ff0e476114610544575b600080fd5b3480156100e157600080fd5b50610116600480360381019080803573ffffffffffffffffffffffffffffffffffffffff16906020019092919050505061057b565b6040518082815260200191505060405180910390f35b61014a60048036038101908080359060200190929190505050610593565b005b34801561015857600080fd5b50610177600480360381019080803590602001909291905050506105ff565b604051808781526020018663ffffffff1663ffffffff1681526020018563ffffffff1663ffffffff1681526020018463ffffffff1663ffffffff1681526020018363ffffffff1663ffffffff16815260200180602001828103825283818151815260200191508051906020019080838360005b838110156102055780820151818401526020810190506101ea565b50505050905090810190601f1680156102325780820380516001836020036101000a031916815260200191505b5097505050505050505060405180910390f35b34801561025157600080fd5b5061025a610722565b005b34801561026857600080fd5b5061029d600480360381019080803573ffffffffffffffffffffffffffffffffffffffff1690602001909291905050506107fe565b6040518080602001828103825283818151815260200191508051906020019060200280838360005b838110156102e05780820151818401526020810190506102c5565b505050509050019250505060405180910390f35b34801561030057600080fd5b5061031f60048036038101908080359060200190929190505050610930565b604051808273ffffffffffffffffffffffffffffffffffffffff1673ffffffffffffffffffffffffffffffffffffffff16815260200191505060405180910390f35b34801561036d57600080fd5b506103966004803603810190808035906020019092919080359060200190929190505050610963565b005b3480156103a457600080fd5b506103ff600480360381019080803590602001908201803590602001908080601f0160208091040260200160405190810160405280939291908181526020018383808284378201915050505050509192919290505050610a43565b005b34801561040d57600080fd5b50610416610aab565b604051808273ffffffffffffffffffffffffffffffffffffffff1673ffffffffffffffffffffffffffffffffffffffff16815260200191505060405180910390f35b34801561046457600080fd5b5061048d6004803603810190808035906020019092919080359060200190929190505050610ad0565b005b34801561049b57600080fd5b506104d260048036038101908080359060200190929190803590602001908201803590602001919091929391929390505050610dca565b005b3480156104e057600080fd5b506104ff60048036038101908080359060200190929190505050610eb6565b005b34801561050d57600080fd5b50610542600480360381019080803573ffffffffffffffffffffffffffffffffffffffff169060200190929190505050610f1b565b005b34801561055057600080fd5b506105796004803603810190808035906020019092919080359060200190929190505050611070565b005b60066020528060005260406000206000915090505481565b600754341415156105a357600080fd5b6003818154811015156105b257fe5b9060005260206000209060030201600101600081819054906101000a900463ffffffff168092919060010191906101000a81548163ffffffff021916908363ffffffff1602179055505050565b60038181548110151561060e57fe5b90600052602060002090600302016000915090508060000154908060010160009054906101000a900463ffffffff16908060010160049054906101000a900463ffffffff16908060010160089054906101000a900463ffffffff169080600101600c9054906101000a900463ffffffff1690806002018054600181600116156101000203166002900480601f0160208091040260200160405190810160405280929190818152602001828054600181600116156101000203166002900480156107185780601f106106ed57610100808354040283529160200191610718565b820191906000526020600020905b8154815290600101906020018083116106fb57829003601f168201915b5050505050905086565b6000809054906101000a900473ffffffffffffffffffffffffffffffffffffffff1673ffffffffffffffffffffffffffffffffffffffff163373ffffffffffffffffffffffffffffffffffffffff1614151561077d57600080fd5b6000809054906101000a900473ffffffffffffffffffffffffffffffffffffffff1673ffffffffffffffffffffffffffffffffffffffff166108fc3073ffffffffffffffffffffffffffffffffffffffff16319081150290604051600060405180830381858888f193505050501580156107fb573d6000803e3d6000fd5b50565b606080600080600660008673ffffffffffffffffffffffffffffffffffffffff1673ffffffffffffffffffffffffffffffffffffffff168152602001908152602001600020546040519080825280602002602001820160405280156108725781602001602082028038833980820191505090505b50925060009150600090505b600380549050811015610925578473ffffffffffffffffffffffffffffffffffffffff166005600083815260200190815260200160002060009054906101000a900473ffffffffffffffffffffffffffffffffffffffff1673ffffffffffffffffffffffffffffffffffffffff1614156109185780838381518110151561090157fe5b906020019060200201818152505081806001019250505b808060010191505061087e565b829350505050919050565b60056020528060005260406000206000915054906101000a900473ffffffffffffffffffffffffffffffffffffffff1681565b6014828160038281548110151561097657fe5b906000526020600020906003020160010160009054906101000a900463ffffffff1663ffffffff16101515156109ab57600080fd5b3373ffffffffffffffffffffffffffffffffffffffff166005600086815260200190815260200160002060009054906101000a900473ffffffffffffffffffffffffffffffffffffffff1673ffffffffffffffffffffffffffffffffffffffff16141515610a1857600080fd5b82600385815481101515610a2857fe5b90600052602060002090600302016000018190555050505050565b600080600660003373ffffffffffffffffffffffffffffffffffffffff1673ffffffffffffffffffffffffffffffffffffffff16815260200190815260200160002054141515610a9257600080fd5b610a9b8261108c565b9050610aa78282611109565b5050565b6000809054906101000a900473ffffffffffffffffffffffffffffffffffffffff1681565b60003373ffffffffffffffffffffffffffffffffffffffff166005600085815260200190815260200160002060009054906101000a900473ffffffffffffffffffffffffffffffffffffffff1673ffffffffffffffffffffffffffffffffffffffff16141515610b3f57600080fd5b60644233600854604051808481526020018373ffffffffffffffffffffffffffffffffffffffff1673ffffffffffffffffffffffffffffffffffffffff166c010000000000000000000000000281526014018281526020019350505050604051809103902060019004811515610bb157fe5b0690506008600081548092919060010191905055506046811015610d0957600383815481101515610bde57fe5b9060005260206000209060030201600101600881819054906101000a900463ffffffff168092919060010191906101000a81548163ffffffff021916908363ffffffff16021790555050600383815481101515610c3757fe5b9060005260206000209060030201600101600081819054906101000a900463ffffffff168092919060010191906101000a81548163ffffffff021916908363ffffffff16021790555050610cab83600384815481101515610c9457fe5b90600052602060002090600302016000015461139d565b600382815481101515610cba57fe5b9060005260206000209060030201600101600c81819054906101000a900463ffffffff168092919060010191906101000a81548163ffffffff021916908363ffffffff16021790555050610dc5565b600383815481101515610d1857fe5b9060005260206000209060030201600101600c81819054906101000a900463ffffffff168092919060010191906101000a81548163ffffffff021916908363ffffffff16021790555050600382815481101515610d7157fe5b9060005260206000209060030201600101600881819054906101000a900463ffffffff168092919060010191906101000a81548163ffffffff021916908363ffffffff16021790555050610dc483611505565b5b505050565b60028381600382815481101515610ddd57fe5b906000526020600020906003020160010160009054906101000a900463ffffffff1663ffffffff1610151515610e1257600080fd5b3373ffffffffffffffffffffffffffffffffffffffff166005600087815260200190815260200160002060009054906101000a900473ffffffffffffffffffffffffffffffffffffffff1673ffffffffffffffffffffffffffffffffffffffff16141515610e7f57600080fd5b8383600387815481101515610e9057fe5b90600052602060002090600302016002019190610eae929190611573565b505050505050565b6000809054906101000a900473ffffffffffffffffffffffffffffffffffffffff1673ffffffffffffffffffffffffffffffffffffffff163373ffffffffffffffffffffffffffffffffffffffff16141515610f1157600080fd5b8060078190555050565b6000809054906101000a900473ffffffffffffffffffffffffffffffffffffffff1673ffffffffffffffffffffffffffffffffffffffff163373ffffffffffffffffffffffffffffffffffffffff16141515610f7657600080fd5b600073ffffffffffffffffffffffffffffffffffffffff168173ffffffffffffffffffffffffffffffffffffffff1614151515610fb257600080fd5b8073ffffffffffffffffffffffffffffffffffffffff166000809054906101000a900473ffffffffffffffffffffffffffffffffffffffff1673ffffffffffffffffffffffffffffffffffffffff167f8be0079c531659141344cd1fd0a4f28419497f9722a3daafe3b4186f6b6457e060405160405180910390a3806000806101000a81548173ffffffffffffffffffffffffffffffffffffffff021916908373ffffffffffffffffffffffffffffffffffffffff16021790555050565b600061107b8261154b565b9050611087838261139d565b505050565b6000600254826040518082805190602001908083835b6020831015156110c757805182526020820191506020810190506020830392506110a2565b6001836020036101000a03801982511681845116808217855250505050505090500191505060405180910390206001900481151561110157fe5b069050919050565b60006001600360c060405190810160405280858152602001600163ffffffff1681526020014263ffffffff168152602001600063ffffffff168152602001600063ffffffff16815260200186815250908060018154018082558091505090600182039060005260206000209060030201600090919290919091506000820151816000015560208201518160010160006101000a81548163ffffffff021916908363ffffffff16021790555060408201518160010160046101000a81548163ffffffff021916908363ffffffff16021790555060608201518160010160086101000a81548163ffffffff021916908363ffffffff160217905550608082015181600101600c6101000a81548163ffffffff021916908363ffffffff16021790555060a08201518160020190805190602001906112459291906115f3565b505050039050336005600083815260200190815260200160002060006101000a81548173ffffffffffffffffffffffffffffffffffffffff021916908373ffffffffffffffffffffffffffffffffffffffff160217905550600660003373ffffffffffffffffffffffffffffffffffffffff1673ffffffffffffffffffffffffffffffffffffffff168152602001908152602001600020600081548092919060010191905055507f88f026aacbbecc90c18411df4b1185fd8d9be2470f1962f192bf84a27d0704b78184846040518084815260200180602001838152602001828103825284818151815260200191508051906020019080838360005b8381101561135c578082015181840152602081019050611341565b50505050905090810190601f1680156113895780820380516001836020036101000a031916815260200191505b5094505050505060405180910390a1505050565b6000806000803373ffffffffffffffffffffffffffffffffffffffff166005600088815260200190815260200160002060009054906101000a900473ffffffffffffffffffffffffffffffffffffffff1673ffffffffffffffffffffffffffffffffffffffff1614151561141057600080fd5b60038681548110151561141f57fe5b906000526020600020906003020193504263ffffffff168460010160049054906101000a900463ffffffff1663ffffffff161115151561145e57600080fd5b6002548581151561146b57fe5b06925060028385600001540181151561148057fe5b049150606360648381151561149157fe5b0683030190506114d66040805190810160405280600681526020017f4e6f2d6f6e65000000000000000000000000000000000000000000000000000081525082611109565b60045442018460010160046101000a81548163ffffffff021916908363ffffffff160217905550505050505050565b600454420160038281548110151561151957fe5b906000526020600020906003020160010160046101000a81548163ffffffff021916908363ffffffff16021790555050565b6000808260405180828152602001915050604051809103902060019004905080915050919050565b828054600181600116156101000203166002900490600052602060002090601f016020900481019282601f106115b457803560ff19168380011785556115e2565b828001600101855582156115e2579182015b828111156115e15782358255916020019190600101906115c6565b5b5090506115ef9190611673565b5090565b828054600181600116156101000203166002900490600052602060002090601f016020900481019282601f1061163457805160ff1916838001178555611662565b82800160010185558215611662579182015b82811115611661578251825591602001919060010190611646565b5b50905061166f9190611673565b5090565b61169591905b80821115611691576000816000905550600101611679565b5090565b905600a165627a7a72305820a5600fa7db389a7de0be4d49700c0476598df82425294a591a36334bbf9d16760029",
					"opcodes": "PUSH1 0x80 PUSH1 0x40 MSTORE PUSH1 0x10 PUSH1 0x1 SSTORE PUSH1 0x1 SLOAD PUSH1 0xA EXP PUSH1 0x2 SSTORE PUSH1 0x3C PUSH1 0x4 SSTORE PUSH7 0x38D7EA4C68000 PUSH1 0x7 SSTORE PUSH1 0x0 PUSH1 0x8 SSTORE CALLER PUSH1 0x0 DUP1 PUSH2 0x100 EXP DUP2 SLOAD DUP2 PUSH20 0xFFFFFFFFFFFFFFFFFFFFFFFFFFFFFFFFFFFFFFFF MUL NOT AND SWAP1 DUP4 PUSH20 0xFFFFFFFFFFFFFFFFFFFFFFFFFFFFFFFFFFFFFFFF AND MUL OR SWAP1 SSTORE POP PUSH2 0x16C4 DUP1 PUSH2 0x76 PUSH1 0x0 CODECOPY PUSH1 0x0 RETURN STOP PUSH1 0x80 PUSH1 0x40 MSTORE PUSH1 0x4 CALLDATASIZE LT PUSH2 0xD0 JUMPI PUSH1 0x0 CALLDATALOAD PUSH29 0x100000000000000000000000000000000000000000000000000000000 SWAP1 DIV PUSH4 0xFFFFFFFF AND DUP1 PUSH4 0x1AFD7E1 EQ PUSH2 0xD5 JUMPI DUP1 PUSH4 0xCE90EC2 EQ PUSH2 0x12C JUMPI DUP1 PUSH4 0x2052465E EQ PUSH2 0x14C JUMPI DUP1 PUSH4 0x3CCFD60B EQ PUSH2 0x245 JUMPI DUP1 PUSH4 0x4412E104 EQ PUSH2 0x25C JUMPI DUP1 PUSH4 0x528B7B8F EQ PUSH2 0x2F4 JUMPI DUP1 PUSH4 0x5FAF2880 EQ PUSH2 0x361 JUMPI DUP1 PUSH4 0x7BFF0A01 EQ PUSH2 0x398 JUMPI DUP1 PUSH4 0x8DA5CB5B EQ PUSH2 0x401 JUMPI DUP1 PUSH4 0xA59FDE52 EQ PUSH2 0x458 JUMPI DUP1 PUSH4 0xC39CBEF1 EQ PUSH2 0x48F JUMPI DUP1 PUSH4 0xCCF670F8 EQ PUSH2 0x4D4 JUMPI DUP1 PUSH4 0xF2FDE38B EQ PUSH2 0x501 JUMPI DUP1 PUSH4 0xFF0E4761 EQ PUSH2 0x544 JUMPI JUMPDEST PUSH1 0x0 DUP1 REVERT JUMPDEST CALLVALUE DUP1 ISZERO PUSH2 0xE1 JUMPI PUSH1 0x0 DUP1 REVERT JUMPDEST POP PUSH2 0x116 PUSH1 0x4 DUP1 CALLDATASIZE SUB DUP2 ADD SWAP1 DUP1 DUP1 CALLDATALOAD PUSH20 0xFFFFFFFFFFFFFFFFFFFFFFFFFFFFFFFFFFFFFFFF AND SWAP1 PUSH1 0x20 ADD SWAP1 SWAP3 SWAP2 SWAP1 POP POP POP PUSH2 0x57B JUMP JUMPDEST PUSH1 0x40 MLOAD DUP1 DUP3 DUP2 MSTORE PUSH1 0x20 ADD SWAP2 POP POP PUSH1 0x40 MLOAD DUP1 SWAP2 SUB SWAP1 RETURN JUMPDEST PUSH2 0x14A PUSH1 0x4 DUP1 CALLDATASIZE SUB DUP2 ADD SWAP1 DUP1 DUP1 CALLDATALOAD SWAP1 PUSH1 0x20 ADD SWAP1 SWAP3 SWAP2 SWAP1 POP POP POP PUSH2 0x593 JUMP JUMPDEST STOP JUMPDEST CALLVALUE DUP1 ISZERO PUSH2 0x158 JUMPI PUSH1 0x0 DUP1 REVERT JUMPDEST POP PUSH2 0x177 PUSH1 0x4 DUP1 CALLDATASIZE SUB DUP2 ADD SWAP1 DUP1 DUP1 CALLDATALOAD SWAP1 PUSH1 0x20 ADD SWAP1 SWAP3 SWAP2 SWAP1 POP POP POP PUSH2 0x5FF JUMP JUMPDEST PUSH1 0x40 MLOAD DUP1 DUP8 DUP2 MSTORE PUSH1 0x20 ADD DUP7 PUSH4 0xFFFFFFFF AND PUSH4 0xFFFFFFFF AND DUP2 MSTORE PUSH1 0x20 ADD DUP6 PUSH4 0xFFFFFFFF AND PUSH4 0xFFFFFFFF AND DUP2 MSTORE PUSH1 0x20 ADD DUP5 PUSH4 0xFFFFFFFF AND PUSH4 0xFFFFFFFF AND DUP2 MSTORE PUSH1 0x20 ADD DUP4 PUSH4 0xFFFFFFFF AND PUSH4 0xFFFFFFFF AND DUP2 MSTORE PUSH1 0x20 ADD DUP1 PUSH1 0x20 ADD DUP3 DUP2 SUB DUP3 MSTORE DUP4 DUP2 DUP2 MLOAD DUP2 MSTORE PUSH1 0x20 ADD SWAP2 POP DUP1 MLOAD SWAP1 PUSH1 0x20 ADD SWAP1 DUP1 DUP4 DUP4 PUSH1 0x0 JUMPDEST DUP4 DUP2 LT ISZERO PUSH2 0x205 JUMPI DUP1 DUP3 ADD MLOAD DUP2 DUP5 ADD MSTORE PUSH1 0x20 DUP2 ADD SWAP1 POP PUSH2 0x1EA JUMP JUMPDEST POP POP POP POP SWAP1 POP SWAP1 DUP2 ADD SWAP1 PUSH1 0x1F AND DUP1 ISZERO PUSH2 0x232 JUMPI DUP1 DUP3 SUB DUP1 MLOAD PUSH1 0x1 DUP4 PUSH1 0x20 SUB PUSH2 0x100 EXP SUB NOT AND DUP2 MSTORE PUSH1 0x20 ADD SWAP2 POP JUMPDEST POP SWAP8 POP POP POP POP POP POP POP POP PUSH1 0x40 MLOAD DUP1 SWAP2 SUB SWAP1 RETURN JUMPDEST CALLVALUE DUP1 ISZERO PUSH2 0x251 JUMPI PUSH1 0x0 DUP1 REVERT JUMPDEST POP PUSH2 0x25A PUSH2 0x722 JUMP JUMPDEST STOP JUMPDEST CALLVALUE DUP1 ISZERO PUSH2 0x268 JUMPI PUSH1 0x0 DUP1 REVERT JUMPDEST POP PUSH2 0x29D PUSH1 0x4 DUP1 CALLDATASIZE SUB DUP2 ADD SWAP1 DUP1 DUP1 CALLDATALOAD PUSH20 0xFFFFFFFFFFFFFFFFFFFFFFFFFFFFFFFFFFFFFFFF AND SWAP1 PUSH1 0x20 ADD SWAP1 SWAP3 SWAP2 SWAP1 POP POP POP PUSH2 0x7FE JUMP JUMPDEST PUSH1 0x40 MLOAD DUP1 DUP1 PUSH1 0x20 ADD DUP3 DUP2 SUB DUP3 MSTORE DUP4 DUP2 DUP2 MLOAD DUP2 MSTORE PUSH1 0x20 ADD SWAP2 POP DUP1 MLOAD SWAP1 PUSH1 0x20 ADD SWAP1 PUSH1 0x20 MUL DUP1 DUP4 DUP4 PUSH1 0x0 JUMPDEST DUP4 DUP2 LT ISZERO PUSH2 0x2E0 JUMPI DUP1 DUP3 ADD MLOAD DUP2 DUP5 ADD MSTORE PUSH1 0x20 DUP2 ADD SWAP1 POP PUSH2 0x2C5 JUMP JUMPDEST POP POP POP POP SWAP1 POP ADD SWAP3 POP POP POP PUSH1 0x40 MLOAD DUP1 SWAP2 SUB SWAP1 RETURN JUMPDEST CALLVALUE DUP1 ISZERO PUSH2 0x300 JUMPI PUSH1 0x0 DUP1 REVERT JUMPDEST POP PUSH2 0x31F PUSH1 0x4 DUP1 CALLDATASIZE SUB DUP2 ADD SWAP1 DUP1 DUP1 CALLDATALOAD SWAP1 PUSH1 0x20 ADD SWAP1 SWAP3 SWAP2 SWAP1 POP POP POP PUSH2 0x930 JUMP JUMPDEST PUSH1 0x40 MLOAD DUP1 DUP3 PUSH20 0xFFFFFFFFFFFFFFFFFFFFFFFFFFFFFFFFFFFFFFFF AND PUSH20 0xFFFFFFFFFFFFFFFFFFFFFFFFFFFFFFFFFFFFFFFF AND DUP2 MSTORE PUSH1 0x20 ADD SWAP2 POP POP PUSH1 0x40 MLOAD DUP1 SWAP2 SUB SWAP1 RETURN JUMPDEST CALLVALUE DUP1 ISZERO PUSH2 0x36D JUMPI PUSH1 0x0 DUP1 REVERT JUMPDEST POP PUSH2 0x396 PUSH1 0x4 DUP1 CALLDATASIZE SUB DUP2 ADD SWAP1 DUP1 DUP1 CALLDATALOAD SWAP1 PUSH1 0x20 ADD SWAP1 SWAP3 SWAP2 SWAP1 DUP1 CALLDATALOAD SWAP1 PUSH1 0x20 ADD SWAP1 SWAP3 SWAP2 SWAP1 POP POP POP PUSH2 0x963 JUMP JUMPDEST STOP JUMPDEST CALLVALUE DUP1 ISZERO PUSH2 0x3A4 JUMPI PUSH1 0x0 DUP1 REVERT JUMPDEST POP PUSH2 0x3FF PUSH1 0x4 DUP1 CALLDATASIZE SUB DUP2 ADD SWAP1 DUP1 DUP1 CALLDATALOAD SWAP1 PUSH1 0x20 ADD SWAP1 DUP3 ADD DUP1 CALLDATALOAD SWAP1 PUSH1 0x20 ADD SWAP1 DUP1 DUP1 PUSH1 0x1F ADD PUSH1 0x20 DUP1 SWAP2 DIV MUL PUSH1 0x20 ADD PUSH1 0x40 MLOAD SWAP1 DUP2 ADD PUSH1 0x40 MSTORE DUP1 SWAP4 SWAP3 SWAP2 SWAP1 DUP2 DUP2 MSTORE PUSH1 0x20 ADD DUP4 DUP4 DUP1 DUP3 DUP5 CALLDATACOPY DUP3 ADD SWAP2 POP POP POP POP POP POP SWAP2 SWAP3 SWAP2 SWAP3 SWAP1 POP POP POP PUSH2 0xA43 JUMP JUMPDEST STOP JUMPDEST CALLVALUE DUP1 ISZERO PUSH2 0x40D JUMPI PUSH1 0x0 DUP1 REVERT JUMPDEST POP PUSH2 0x416 PUSH2 0xAAB JUMP JUMPDEST PUSH1 0x40 MLOAD DUP1 DUP3 PUSH20 0xFFFFFFFFFFFFFFFFFFFFFFFFFFFFFFFFFFFFFFFF AND PUSH20 0xFFFFFFFFFFFFFFFFFFFFFFFFFFFFFFFFFFFFFFFF AND DUP2 MSTORE PUSH1 0x20 ADD SWAP2 POP POP PUSH1 0x40 MLOAD DUP1 SWAP2 SUB SWAP1 RETURN JUMPDEST CALLVALUE DUP1 ISZERO PUSH2 0x464 JUMPI PUSH1 0x0 DUP1 REVERT JUMPDEST POP PUSH2 0x48D PUSH1 0x4 DUP1 CALLDATASIZE SUB DUP2 ADD SWAP1 DUP1 DUP1 CALLDATALOAD SWAP1 PUSH1 0x20 ADD SWAP1 SWAP3 SWAP2 SWAP1 DUP1 CALLDATALOAD SWAP1 PUSH1 0x20 ADD SWAP1 SWAP3 SWAP2 SWAP1 POP POP POP PUSH2 0xAD0 JUMP JUMPDEST STOP JUMPDEST CALLVALUE DUP1 ISZERO PUSH2 0x49B JUMPI PUSH1 0x0 DUP1 REVERT JUMPDEST POP PUSH2 0x4D2 PUSH1 0x4 DUP1 CALLDATASIZE SUB DUP2 ADD SWAP1 DUP1 DUP1 CALLDATALOAD SWAP1 PUSH1 0x20 ADD SWAP1 SWAP3 SWAP2 SWAP1 DUP1 CALLDATALOAD SWAP1 PUSH1 0x20 ADD SWAP1 DUP3 ADD DUP1 CALLDATALOAD SWAP1 PUSH1 0x20 ADD SWAP2 SWAP1 SWAP2 SWAP3 SWAP4 SWAP2 SWAP3 SWAP4 SWAP1 POP POP POP PUSH2 0xDCA JUMP JUMPDEST STOP JUMPDEST CALLVALUE DUP1 ISZERO PUSH2 0x4E0 JUMPI PUSH1 0x0 DUP1 REVERT JUMPDEST POP PUSH2 0x4FF PUSH1 0x4 DUP1 CALLDATASIZE SUB DUP2 ADD SWAP1 DUP1 DUP1 CALLDATALOAD SWAP1 PUSH1 0x20 ADD SWAP1 SWAP3 SWAP2 SWAP1 POP POP POP PUSH2 0xEB6 JUMP JUMPDEST STOP JUMPDEST CALLVALUE DUP1 ISZERO PUSH2 0x50D JUMPI PUSH1 0x0 DUP1 REVERT JUMPDEST POP PUSH2 0x542 PUSH1 0x4 DUP1 CALLDATASIZE SUB DUP2 ADD SWAP1 DUP1 DUP1 CALLDATALOAD PUSH20 0xFFFFFFFFFFFFFFFFFFFFFFFFFFFFFFFFFFFFFFFF AND SWAP1 PUSH1 0x20 ADD SWAP1 SWAP3 SWAP2 SWAP1 POP POP POP PUSH2 0xF1B JUMP JUMPDEST STOP JUMPDEST CALLVALUE DUP1 ISZERO PUSH2 0x550 JUMPI PUSH1 0x0 DUP1 REVERT JUMPDEST POP PUSH2 0x579 PUSH1 0x4 DUP1 CALLDATASIZE SUB DUP2 ADD SWAP1 DUP1 DUP1 CALLDATALOAD SWAP1 PUSH1 0x20 ADD SWAP1 SWAP3 SWAP2 SWAP1 DUP1 CALLDATALOAD SWAP1 PUSH1 0x20 ADD SWAP1 SWAP3 SWAP2 SWAP1 POP POP POP PUSH2 0x1070 JUMP JUMPDEST STOP JUMPDEST PUSH1 0x6 PUSH1 0x20 MSTORE DUP1 PUSH1 0x0 MSTORE PUSH1 0x40 PUSH1 0x0 KECCAK256 PUSH1 0x0 SWAP2 POP SWAP1 POP SLOAD DUP2 JUMP JUMPDEST PUSH1 0x7 SLOAD CALLVALUE EQ ISZERO ISZERO PUSH2 0x5A3 JUMPI PUSH1 0x0 DUP1 REVERT JUMPDEST PUSH1 0x3 DUP2 DUP2 SLOAD DUP2 LT ISZERO ISZERO PUSH2 0x5B2 JUMPI INVALID JUMPDEST SWAP1 PUSH1 0x0 MSTORE PUSH1 0x20 PUSH1 0x0 KECCAK256 SWAP1 PUSH1 0x3 MUL ADD PUSH1 0x1 ADD PUSH1 0x0 DUP2 DUP2 SWAP1 SLOAD SWAP1 PUSH2 0x100 EXP SWAP1 DIV PUSH4 0xFFFFFFFF AND DUP1 SWAP3 SWAP2 SWAP1 PUSH1 0x1 ADD SWAP2 SWAP1 PUSH2 0x100 EXP DUP2 SLOAD DUP2 PUSH4 0xFFFFFFFF MUL NOT AND SWAP1 DUP4 PUSH4 0xFFFFFFFF AND MUL OR SWAP1 SSTORE POP POP POP JUMP JUMPDEST PUSH1 0x3 DUP2 DUP2 SLOAD DUP2 LT ISZERO ISZERO PUSH2 0x60E JUMPI INVALID JUMPDEST SWAP1 PUSH1 0x0 MSTORE PUSH1 0x20 PUSH1 0x0 KECCAK256 SWAP1 PUSH1 0x3 MUL ADD PUSH1 0x0 SWAP2 POP SWAP1 POP DUP1 PUSH1 0x0 ADD SLOAD SWAP1 DUP1 PUSH1 0x1 ADD PUSH1 0x0 SWAP1 SLOAD SWAP1 PUSH2 0x100 EXP SWAP1 DIV PUSH4 0xFFFFFFFF AND SWAP1 DUP1 PUSH1 0x1 ADD PUSH1 0x4 SWAP1 SLOAD SWAP1 PUSH2 0x100 EXP SWAP1 DIV PUSH4 0xFFFFFFFF AND SWAP1 DUP1 PUSH1 0x1 ADD PUSH1 0x8 SWAP1 SLOAD SWAP1 PUSH2 0x100 EXP SWAP1 DIV PUSH4 0xFFFFFFFF AND SWAP1 DUP1 PUSH1 0x1 ADD PUSH1 0xC SWAP1 SLOAD SWAP1 PUSH2 0x100 EXP SWAP1 DIV PUSH4 0xFFFFFFFF AND SWAP1 DUP1 PUSH1 0x2 ADD DUP1 SLOAD PUSH1 0x1 DUP2 PUSH1 0x1 AND ISZERO PUSH2 0x100 MUL SUB AND PUSH1 0x2 SWAP1 DIV DUP1 PUSH1 0x1F ADD PUSH1 0x20 DUP1 SWAP2 DIV MUL PUSH1 0x20 ADD PUSH1 0x40 MLOAD SWAP1 DUP2 ADD PUSH1 0x40 MSTORE DUP1 SWAP3 SWAP2 SWAP1 DUP2 DUP2 MSTORE PUSH1 0x20 ADD DUP3 DUP1 SLOAD PUSH1 0x1 DUP2 PUSH1 0x1 AND ISZERO PUSH2 0x100 MUL SUB AND PUSH1 0x2 SWAP1 DIV DUP1 ISZERO PUSH2 0x718 JUMPI DUP1 PUSH1 0x1F LT PUSH2 0x6ED JUMPI PUSH2 0x100 DUP1 DUP4 SLOAD DIV MUL DUP4 MSTORE SWAP2 PUSH1 0x20 ADD SWAP2 PUSH2 0x718 JUMP JUMPDEST DUP3 ADD SWAP2 SWAP1 PUSH1 0x0 MSTORE PUSH1 0x20 PUSH1 0x0 KECCAK256 SWAP1 JUMPDEST DUP2 SLOAD DUP2 MSTORE SWAP1 PUSH1 0x1 ADD SWAP1 PUSH1 0x20 ADD DUP1 DUP4 GT PUSH2 0x6FB JUMPI DUP3 SWAP1 SUB PUSH1 0x1F AND DUP3 ADD SWAP2 JUMPDEST POP POP POP POP POP SWAP1 POP DUP7 JUMP JUMPDEST PUSH1 0x0 DUP1 SWAP1 SLOAD SWAP1 PUSH2 0x100 EXP SWAP1 DIV PUSH20 0xFFFFFFFFFFFFFFFFFFFFFFFFFFFFFFFFFFFFFFFF AND PUSH20 0xFFFFFFFFFFFFFFFFFFFFFFFFFFFFFFFFFFFFFFFF AND CALLER PUSH20 0xFFFFFFFFFFFFFFFFFFFFFFFFFFFFFFFFFFFFFFFF AND EQ ISZERO ISZERO PUSH2 0x77D JUMPI PUSH1 0x0 DUP1 REVERT JUMPDEST PUSH1 0x0 DUP1 SWAP1 SLOAD SWAP1 PUSH2 0x100 EXP SWAP1 DIV PUSH20 0xFFFFFFFFFFFFFFFFFFFFFFFFFFFFFFFFFFFFFFFF AND PUSH20 0xFFFFFFFFFFFFFFFFFFFFFFFFFFFFFFFFFFFFFFFF AND PUSH2 0x8FC ADDRESS PUSH20 0xFFFFFFFFFFFFFFFFFFFFFFFFFFFFFFFFFFFFFFFF AND BALANCE SWAP1 DUP2 ISZERO MUL SWAP1 PUSH1 0x40 MLOAD PUSH1 0x0 PUSH1 0x40 MLOAD DUP1 DUP4 SUB DUP2 DUP6 DUP9 DUP9 CALL SWAP4 POP POP POP POP ISZERO DUP1 ISZERO PUSH2 0x7FB JUMPI RETURNDATASIZE PUSH1 0x0 DUP1 RETURNDATACOPY RETURNDATASIZE PUSH1 0x0 REVERT JUMPDEST POP JUMP JUMPDEST PUSH1 0x60 DUP1 PUSH1 0x0 DUP1 PUSH1 0x6 PUSH1 0x0 DUP7 PUSH20 0xFFFFFFFFFFFFFFFFFFFFFFFFFFFFFFFFFFFFFFFF AND PUSH20 0xFFFFFFFFFFFFFFFFFFFFFFFFFFFFFFFFFFFFFFFF AND DUP2 MSTORE PUSH1 0x20 ADD SWAP1 DUP2 MSTORE PUSH1 0x20 ADD PUSH1 0x0 KECCAK256 SLOAD PUSH1 0x40 MLOAD SWAP1 DUP1 DUP3 MSTORE DUP1 PUSH1 0x20 MUL PUSH1 0x20 ADD DUP3 ADD PUSH1 0x40 MSTORE DUP1 ISZERO PUSH2 0x872 JUMPI DUP2 PUSH1 0x20 ADD PUSH1 0x20 DUP3 MUL DUP1 CODESIZE DUP4 CODECOPY DUP1 DUP3 ADD SWAP2 POP POP SWAP1 POP JUMPDEST POP SWAP3 POP PUSH1 0x0 SWAP2 POP PUSH1 0x0 SWAP1 POP JUMPDEST PUSH1 0x3 DUP1 SLOAD SWAP1 POP DUP2 LT ISZERO PUSH2 0x925 JUMPI DUP5 PUSH20 0xFFFFFFFFFFFFFFFFFFFFFFFFFFFFFFFFFFFFFFFF AND PUSH1 0x5 PUSH1 0x0 DUP4 DUP2 MSTORE PUSH1 0x20 ADD SWAP1 DUP2 MSTORE PUSH1 0x20 ADD PUSH1 0x0 KECCAK256 PUSH1 0x0 SWAP1 SLOAD SWAP1 PUSH2 0x100 EXP SWAP1 DIV PUSH20 0xFFFFFFFFFFFFFFFFFFFFFFFFFFFFFFFFFFFFFFFF AND PUSH20 0xFFFFFFFFFFFFFFFFFFFFFFFFFFFFFFFFFFFFFFFF AND EQ ISZERO PUSH2 0x918 JUMPI DUP1 DUP4 DUP4 DUP2 MLOAD DUP2 LT ISZERO ISZERO PUSH2 0x901 JUMPI INVALID JUMPDEST SWAP1 PUSH1 0x20 ADD SWAP1 PUSH1 0x20 MUL ADD DUP2 DUP2 MSTORE POP POP DUP2 DUP1 PUSH1 0x1 ADD SWAP3 POP POP JUMPDEST DUP1 DUP1 PUSH1 0x1 ADD SWAP2 POP POP PUSH2 0x87E JUMP JUMPDEST DUP3 SWAP4 POP POP POP POP SWAP2 SWAP1 POP JUMP JUMPDEST PUSH1 0x5 PUSH1 0x20 MSTORE DUP1 PUSH1 0x0 MSTORE PUSH1 0x40 PUSH1 0x0 KECCAK256 PUSH1 0x0 SWAP2 POP SLOAD SWAP1 PUSH2 0x100 EXP SWAP1 DIV PUSH20 0xFFFFFFFFFFFFFFFFFFFFFFFFFFFFFFFFFFFFFFFF AND DUP2 JUMP JUMPDEST PUSH1 0x14 DUP3 DUP2 PUSH1 0x3 DUP3 DUP2 SLOAD DUP2 LT ISZERO ISZERO PUSH2 0x976 JUMPI INVALID JUMPDEST SWAP1 PUSH1 0x0 MSTORE PUSH1 0x20 PUSH1 0x0 KECCAK256 SWAP1 PUSH1 0x3 MUL ADD PUSH1 0x1 ADD PUSH1 0x0 SWAP1 SLOAD SWAP1 PUSH2 0x100 EXP SWAP1 DIV PUSH4 0xFFFFFFFF AND PUSH4 0xFFFFFFFF AND LT ISZERO ISZERO ISZERO PUSH2 0x9AB JUMPI PUSH1 0x0 DUP1 REVERT JUMPDEST CALLER PUSH20 0xFFFFFFFFFFFFFFFFFFFFFFFFFFFFFFFFFFFFFFFF AND PUSH1 0x5 PUSH1 0x0 DUP7 DUP2 MSTORE PUSH1 0x20 ADD SWAP1 DUP2 MSTORE PUSH1 0x20 ADD PUSH1 0x0 KECCAK256 PUSH1 0x0 SWAP1 SLOAD SWAP1 PUSH2 0x100 EXP SWAP1 DIV PUSH20 0xFFFFFFFFFFFFFFFFFFFFFFFFFFFFFFFFFFFFFFFF AND PUSH20 0xFFFFFFFFFFFFFFFFFFFFFFFFFFFFFFFFFFFFFFFF AND EQ ISZERO ISZERO PUSH2 0xA18 JUMPI PUSH1 0x0 DUP1 REVERT JUMPDEST DUP3 PUSH1 0x3 DUP6 DUP2 SLOAD DUP2 LT ISZERO ISZERO PUSH2 0xA28 JUMPI INVALID JUMPDEST SWAP1 PUSH1 0x0 MSTORE PUSH1 0x20 PUSH1 0x0 KECCAK256 SWAP1 PUSH1 0x3 MUL ADD PUSH1 0x0 ADD DUP2 SWAP1 SSTORE POP POP POP POP POP JUMP JUMPDEST PUSH1 0x0 DUP1 PUSH1 0x6 PUSH1 0x0 CALLER PUSH20 0xFFFFFFFFFFFFFFFFFFFFFFFFFFFFFFFFFFFFFFFF AND PUSH20 0xFFFFFFFFFFFFFFFFFFFFFFFFFFFFFFFFFFFFFFFF AND DUP2 MSTORE PUSH1 0x20 ADD SWAP1 DUP2 MSTORE PUSH1 0x20 ADD PUSH1 0x0 KECCAK256 SLOAD EQ ISZERO ISZERO PUSH2 0xA92 JUMPI PUSH1 0x0 DUP1 REVERT JUMPDEST PUSH2 0xA9B DUP3 PUSH2 0x108C JUMP JUMPDEST SWAP1 POP PUSH2 0xAA7 DUP3 DUP3 PUSH2 0x1109 JUMP JUMPDEST POP POP JUMP JUMPDEST PUSH1 0x0 DUP1 SWAP1 SLOAD SWAP1 PUSH2 0x100 EXP SWAP1 DIV PUSH20 0xFFFFFFFFFFFFFFFFFFFFFFFFFFFFFFFFFFFFFFFF AND DUP2 JUMP JUMPDEST PUSH1 0x0 CALLER PUSH20 0xFFFFFFFFFFFFFFFFFFFFFFFFFFFFFFFFFFFFFFFF AND PUSH1 0x5 PUSH1 0x0 DUP6 DUP2 MSTORE PUSH1 0x20 ADD SWAP1 DUP2 MSTORE PUSH1 0x20 ADD PUSH1 0x0 KECCAK256 PUSH1 0x0 SWAP1 SLOAD SWAP1 PUSH2 0x100 EXP SWAP1 DIV PUSH20 0xFFFFFFFFFFFFFFFFFFFFFFFFFFFFFFFFFFFFFFFF AND PUSH20 0xFFFFFFFFFFFFFFFFFFFFFFFFFFFFFFFFFFFFFFFF AND EQ ISZERO ISZERO PUSH2 0xB3F JUMPI PUSH1 0x0 DUP1 REVERT JUMPDEST PUSH1 0x64 TIMESTAMP CALLER PUSH1 0x8 SLOAD PUSH1 0x40 MLOAD DUP1 DUP5 DUP2 MSTORE PUSH1 0x20 ADD DUP4 PUSH20 0xFFFFFFFFFFFFFFFFFFFFFFFFFFFFFFFFFFFFFFFF AND PUSH20 0xFFFFFFFFFFFFFFFFFFFFFFFFFFFFFFFFFFFFFFFF AND PUSH13 0x1000000000000000000000000 MUL DUP2 MSTORE PUSH1 0x14 ADD DUP3 DUP2 MSTORE PUSH1 0x20 ADD SWAP4 POP POP POP POP PUSH1 0x40 MLOAD DUP1 SWAP2 SUB SWAP1 KECCAK256 PUSH1 0x1 SWAP1 DIV DUP2 ISZERO ISZERO PUSH2 0xBB1 JUMPI INVALID JUMPDEST MOD SWAP1 POP PUSH1 0x8 PUSH1 0x0 DUP2 SLOAD DUP1 SWAP3 SWAP2 SWAP1 PUSH1 0x1 ADD SWAP2 SWAP1 POP SSTORE POP PUSH1 0x46 DUP2 LT ISZERO PUSH2 0xD09 JUMPI PUSH1 0x3 DUP4 DUP2 SLOAD DUP2 LT ISZERO ISZERO PUSH2 0xBDE JUMPI INVALID JUMPDEST SWAP1 PUSH1 0x0 MSTORE PUSH1 0x20 PUSH1 0x0 KECCAK256 SWAP1 PUSH1 0x3 MUL ADD PUSH1 0x1 ADD PUSH1 0x8 DUP2 DUP2 SWAP1 SLOAD SWAP1 PUSH2 0x100 EXP SWAP1 DIV PUSH4 0xFFFFFFFF AND DUP1 SWAP3 SWAP2 SWAP1 PUSH1 0x1 ADD SWAP2 SWAP1 PUSH2 0x100 EXP DUP2 SLOAD DUP2 PUSH4 0xFFFFFFFF MUL NOT AND SWAP1 DUP4 PUSH4 0xFFFFFFFF AND MUL OR SWAP1 SSTORE POP POP PUSH1 0x3 DUP4 DUP2 SLOAD DUP2 LT ISZERO ISZERO PUSH2 0xC37 JUMPI INVALID JUMPDEST SWAP1 PUSH1 0x0 MSTORE PUSH1 0x20 PUSH1 0x0 KECCAK256 SWAP1 PUSH1 0x3 MUL ADD PUSH1 0x1 ADD PUSH1 0x0 DUP2 DUP2 SWAP1 SLOAD SWAP1 PUSH2 0x100 EXP SWAP1 DIV PUSH4 0xFFFFFFFF AND DUP1 SWAP3 SWAP2 SWAP1 PUSH1 0x1 ADD SWAP2 SWAP1 PUSH2 0x100 EXP DUP2 SLOAD DUP2 PUSH4 0xFFFFFFFF MUL NOT AND SWAP1 DUP4 PUSH4 0xFFFFFFFF AND MUL OR SWAP1 SSTORE POP POP PUSH2 0xCAB DUP4 PUSH1 0x3 DUP5 DUP2 SLOAD DUP2 LT ISZERO ISZERO PUSH2 0xC94 JUMPI INVALID JUMPDEST SWAP1 PUSH1 0x0 MSTORE PUSH1 0x20 PUSH1 0x0 KECCAK256 SWAP1 PUSH1 0x3 MUL ADD PUSH1 0x0 ADD SLOAD PUSH2 0x139D JUMP JUMPDEST PUSH1 0x3 DUP3 DUP2 SLOAD DUP2 LT ISZERO ISZERO PUSH2 0xCBA JUMPI INVALID JUMPDEST SWAP1 PUSH1 0x0 MSTORE PUSH1 0x20 PUSH1 0x0 KECCAK256 SWAP1 PUSH1 0x3 MUL ADD PUSH1 0x1 ADD PUSH1 0xC DUP2 DUP2 SWAP1 SLOAD SWAP1 PUSH2 0x100 EXP SWAP1 DIV PUSH4 0xFFFFFFFF AND DUP1 SWAP3 SWAP2 SWAP1 PUSH1 0x1 ADD SWAP2 SWAP1 PUSH2 0x100 EXP DUP2 SLOAD DUP2 PUSH4 0xFFFFFFFF MUL NOT AND SWAP1 DUP4 PUSH4 0xFFFFFFFF AND MUL OR SWAP1 SSTORE POP POP PUSH2 0xDC5 JUMP JUMPDEST PUSH1 0x3 DUP4 DUP2 SLOAD DUP2 LT ISZERO ISZERO PUSH2 0xD18 JUMPI INVALID JUMPDEST SWAP1 PUSH1 0x0 MSTORE PUSH1 0x20 PUSH1 0x0 KECCAK256 SWAP1 PUSH1 0x3 MUL ADD PUSH1 0x1 ADD PUSH1 0xC DUP2 DUP2 SWAP1 SLOAD SWAP1 PUSH2 0x100 EXP SWAP1 DIV PUSH4 0xFFFFFFFF AND DUP1 SWAP3 SWAP2 SWAP1 PUSH1 0x1 ADD SWAP2 SWAP1 PUSH2 0x100 EXP DUP2 SLOAD DUP2 PUSH4 0xFFFFFFFF MUL NOT AND SWAP1 DUP4 PUSH4 0xFFFFFFFF AND MUL OR SWAP1 SSTORE POP POP PUSH1 0x3 DUP3 DUP2 SLOAD DUP2 LT ISZERO ISZERO PUSH2 0xD71 JUMPI INVALID JUMPDEST SWAP1 PUSH1 0x0 MSTORE PUSH1 0x20 PUSH1 0x0 KECCAK256 SWAP1 PUSH1 0x3 MUL ADD PUSH1 0x1 ADD PUSH1 0x8 DUP2 DUP2 SWAP1 SLOAD SWAP1 PUSH2 0x100 EXP SWAP1 DIV PUSH4 0xFFFFFFFF AND DUP1 SWAP3 SWAP2 SWAP1 PUSH1 0x1 ADD SWAP2 SWAP1 PUSH2 0x100 EXP DUP2 SLOAD DUP2 PUSH4 0xFFFFFFFF MUL NOT AND SWAP1 DUP4 PUSH4 0xFFFFFFFF AND MUL OR SWAP1 SSTORE POP POP PUSH2 0xDC4 DUP4 PUSH2 0x1505 JUMP JUMPDEST JUMPDEST POP POP POP JUMP JUMPDEST PUSH1 0x2 DUP4 DUP2 PUSH1 0x3 DUP3 DUP2 SLOAD DUP2 LT ISZERO ISZERO PUSH2 0xDDD JUMPI INVALID JUMPDEST SWAP1 PUSH1 0x0 MSTORE PUSH1 0x20 PUSH1 0x0 KECCAK256 SWAP1 PUSH1 0x3 MUL ADD PUSH1 0x1 ADD PUSH1 0x0 SWAP1 SLOAD SWAP1 PUSH2 0x100 EXP SWAP1 DIV PUSH4 0xFFFFFFFF AND PUSH4 0xFFFFFFFF AND LT ISZERO ISZERO ISZERO PUSH2 0xE12 JUMPI PUSH1 0x0 DUP1 REVERT JUMPDEST CALLER PUSH20 0xFFFFFFFFFFFFFFFFFFFFFFFFFFFFFFFFFFFFFFFF AND PUSH1 0x5 PUSH1 0x0 DUP8 DUP2 MSTORE PUSH1 0x20 ADD SWAP1 DUP2 MSTORE PUSH1 0x20 ADD PUSH1 0x0 KECCAK256 PUSH1 0x0 SWAP1 SLOAD SWAP1 PUSH2 0x100 EXP SWAP1 DIV PUSH20 0xFFFFFFFFFFFFFFFFFFFFFFFFFFFFFFFFFFFFFFFF AND PUSH20 0xFFFFFFFFFFFFFFFFFFFFFFFFFFFFFFFFFFFFFFFF AND EQ ISZERO ISZERO PUSH2 0xE7F JUMPI PUSH1 0x0 DUP1 REVERT JUMPDEST DUP4 DUP4 PUSH1 0x3 DUP8 DUP2 SLOAD DUP2 LT ISZERO ISZERO PUSH2 0xE90 JUMPI INVALID JUMPDEST SWAP1 PUSH1 0x0 MSTORE PUSH1 0x20 PUSH1 0x0 KECCAK256 SWAP1 PUSH1 0x3 MUL ADD PUSH1 0x2 ADD SWAP2 SWAP1 PUSH2 0xEAE SWAP3 SWAP2 SWAP1 PUSH2 0x1573 JUMP JUMPDEST POP POP POP POP POP POP JUMP JUMPDEST PUSH1 0x0 DUP1 SWAP1 SLOAD SWAP1 PUSH2 0x100 EXP SWAP1 DIV PUSH20 0xFFFFFFFFFFFFFFFFFFFFFFFFFFFFFFFFFFFFFFFF AND PUSH20 0xFFFFFFFFFFFFFFFFFFFFFFFFFFFFFFFFFFFFFFFF AND CALLER PUSH20 0xFFFFFFFFFFFFFFFFFFFFFFFFFFFFFFFFFFFFFFFF AND EQ ISZERO ISZERO PUSH2 0xF11 JUMPI PUSH1 0x0 DUP1 REVERT JUMPDEST DUP1 PUSH1 0x7 DUP2 SWAP1 SSTORE POP POP JUMP JUMPDEST PUSH1 0x0 DUP1 SWAP1 SLOAD SWAP1 PUSH2 0x100 EXP SWAP1 DIV PUSH20 0xFFFFFFFFFFFFFFFFFFFFFFFFFFFFFFFFFFFFFFFF AND PUSH20 0xFFFFFFFFFFFFFFFFFFFFFFFFFFFFFFFFFFFFFFFF AND CALLER PUSH20 0xFFFFFFFFFFFFFFFFFFFFFFFFFFFFFFFFFFFFFFFF AND EQ ISZERO ISZERO PUSH2 0xF76 JUMPI PUSH1 0x0 DUP1 REVERT JUMPDEST PUSH1 0x0 PUSH20 0xFFFFFFFFFFFFFFFFFFFFFFFFFFFFFFFFFFFFFFFF AND DUP2 PUSH20 0xFFFFFFFFFFFFFFFFFFFFFFFFFFFFFFFFFFFFFFFF AND EQ ISZERO ISZERO ISZERO PUSH2 0xFB2 JUMPI PUSH1 0x0 DUP1 REVERT JUMPDEST DUP1 PUSH20 0xFFFFFFFFFFFFFFFFFFFFFFFFFFFFFFFFFFFFFFFF AND PUSH1 0x0 DUP1 SWAP1 SLOAD SWAP1 PUSH2 0x100 EXP SWAP1 DIV PUSH20 0xFFFFFFFFFFFFFFFFFFFFFFFFFFFFFFFFFFFFFFFF AND PUSH20 0xFFFFFFFFFFFFFFFFFFFFFFFFFFFFFFFFFFFFFFFF AND PUSH32 0x8BE0079C531659141344CD1FD0A4F28419497F9722A3DAAFE3B4186F6B6457E0 PUSH1 0x40 MLOAD PUSH1 0x40 MLOAD DUP1 SWAP2 SUB SWAP1 LOG3 DUP1 PUSH1 0x0 DUP1 PUSH2 0x100 EXP DUP2 SLOAD DUP2 PUSH20 0xFFFFFFFFFFFFFFFFFFFFFFFFFFFFFFFFFFFFFFFF MUL NOT AND SWAP1 DUP4 PUSH20 0xFFFFFFFFFFFFFFFFFFFFFFFFFFFFFFFFFFFFFFFF AND MUL OR SWAP1 SSTORE POP POP JUMP JUMPDEST PUSH1 0x0 PUSH2 0x107B DUP3 PUSH2 0x154B JUMP JUMPDEST SWAP1 POP PUSH2 0x1087 DUP4 DUP3 PUSH2 0x139D JUMP JUMPDEST POP POP POP JUMP JUMPDEST PUSH1 0x0 PUSH1 0x2 SLOAD DUP3 PUSH1 0x40 MLOAD DUP1 DUP3 DUP1 MLOAD SWAP1 PUSH1 0x20 ADD SWAP1 DUP1 DUP4 DUP4 JUMPDEST PUSH1 0x20 DUP4 LT ISZERO ISZERO PUSH2 0x10C7 JUMPI DUP1 MLOAD DUP3 MSTORE PUSH1 0x20 DUP3 ADD SWAP2 POP PUSH1 0x20 DUP2 ADD SWAP1 POP PUSH1 0x20 DUP4 SUB SWAP3 POP PUSH2 0x10A2 JUMP JUMPDEST PUSH1 0x1 DUP4 PUSH1 0x20 SUB PUSH2 0x100 EXP SUB DUP1 NOT DUP3 MLOAD AND DUP2 DUP5 MLOAD AND DUP1 DUP3 OR DUP6 MSTORE POP POP POP POP POP POP SWAP1 POP ADD SWAP2 POP POP PUSH1 0x40 MLOAD DUP1 SWAP2 SUB SWAP1 KECCAK256 PUSH1 0x1 SWAP1 DIV DUP2 ISZERO ISZERO PUSH2 0x1101 JUMPI INVALID JUMPDEST MOD SWAP1 POP SWAP2 SWAP1 POP JUMP JUMPDEST PUSH1 0x0 PUSH1 0x1 PUSH1 0x3 PUSH1 0xC0 PUSH1 0x40 MLOAD SWAP1 DUP2 ADD PUSH1 0x40 MSTORE DUP1 DUP6 DUP2 MSTORE PUSH1 0x20 ADD PUSH1 0x1 PUSH4 0xFFFFFFFF AND DUP2 MSTORE PUSH1 0x20 ADD TIMESTAMP PUSH4 0xFFFFFFFF AND DUP2 MSTORE PUSH1 0x20 ADD PUSH1 0x0 PUSH4 0xFFFFFFFF AND DUP2 MSTORE PUSH1 0x20 ADD PUSH1 0x0 PUSH4 0xFFFFFFFF AND DUP2 MSTORE PUSH1 0x20 ADD DUP7 DUP2 MSTORE POP SWAP1 DUP1 PUSH1 0x1 DUP2 SLOAD ADD DUP1 DUP3 SSTORE DUP1 SWAP2 POP POP SWAP1 PUSH1 0x1 DUP3 SUB SWAP1 PUSH1 0x0 MSTORE PUSH1 0x20 PUSH1 0x0 KECCAK256 SWAP1 PUSH1 0x3 MUL ADD PUSH1 0x0 SWAP1 SWAP2 SWAP3 SWAP1 SWAP2 SWAP1 SWAP2 POP PUSH1 0x0 DUP3 ADD MLOAD DUP2 PUSH1 0x0 ADD SSTORE PUSH1 0x20 DUP3 ADD MLOAD DUP2 PUSH1 0x1 ADD PUSH1 0x0 PUSH2 0x100 EXP DUP2 SLOAD DUP2 PUSH4 0xFFFFFFFF MUL NOT AND SWAP1 DUP4 PUSH4 0xFFFFFFFF AND MUL OR SWAP1 SSTORE POP PUSH1 0x40 DUP3 ADD MLOAD DUP2 PUSH1 0x1 ADD PUSH1 0x4 PUSH2 0x100 EXP DUP2 SLOAD DUP2 PUSH4 0xFFFFFFFF MUL NOT AND SWAP1 DUP4 PUSH4 0xFFFFFFFF AND MUL OR SWAP1 SSTORE POP PUSH1 0x60 DUP3 ADD MLOAD DUP2 PUSH1 0x1 ADD PUSH1 0x8 PUSH2 0x100 EXP DUP2 SLOAD DUP2 PUSH4 0xFFFFFFFF MUL NOT AND SWAP1 DUP4 PUSH4 0xFFFFFFFF AND MUL OR SWAP1 SSTORE POP PUSH1 0x80 DUP3 ADD MLOAD DUP2 PUSH1 0x1 ADD PUSH1 0xC PUSH2 0x100 EXP DUP2 SLOAD DUP2 PUSH4 0xFFFFFFFF MUL NOT AND SWAP1 DUP4 PUSH4 0xFFFFFFFF AND MUL OR SWAP1 SSTORE POP PUSH1 0xA0 DUP3 ADD MLOAD DUP2 PUSH1 0x2 ADD SWAP1 DUP1 MLOAD SWAP1 PUSH1 0x20 ADD SWAP1 PUSH2 0x1245 SWAP3 SWAP2 SWAP1 PUSH2 0x15F3 JUMP JUMPDEST POP POP POP SUB SWAP1 POP CALLER PUSH1 0x5 PUSH1 0x0 DUP4 DUP2 MSTORE PUSH1 0x20 ADD SWAP1 DUP2 MSTORE PUSH1 0x20 ADD PUSH1 0x0 KECCAK256 PUSH1 0x0 PUSH2 0x100 EXP DUP2 SLOAD DUP2 PUSH20 0xFFFFFFFFFFFFFFFFFFFFFFFFFFFFFFFFFFFFFFFF MUL NOT AND SWAP1 DUP4 PUSH20 0xFFFFFFFFFFFFFFFFFFFFFFFFFFFFFFFFFFFFFFFF AND MUL OR SWAP1 SSTORE POP PUSH1 0x6 PUSH1 0x0 CALLER PUSH20 0xFFFFFFFFFFFFFFFFFFFFFFFFFFFFFFFFFFFFFFFF AND PUSH20 0xFFFFFFFFFFFFFFFFFFFFFFFFFFFFFFFFFFFFFFFF AND DUP2 MSTORE PUSH1 0x20 ADD SWAP1 DUP2 MSTORE PUSH1 0x20 ADD PUSH1 0x0 KECCAK256 PUSH1 0x0 DUP2 SLOAD DUP1 SWAP3 SWAP2 SWAP1 PUSH1 0x1 ADD SWAP2 SWAP1 POP SSTORE POP PUSH32 0x88F026AACBBECC90C18411DF4B1185FD8D9BE2470F1962F192BF84A27D0704B7 DUP2 DUP5 DUP5 PUSH1 0x40 MLOAD DUP1 DUP5 DUP2 MSTORE PUSH1 0x20 ADD DUP1 PUSH1 0x20 ADD DUP4 DUP2 MSTORE PUSH1 0x20 ADD DUP3 DUP2 SUB DUP3 MSTORE DUP5 DUP2 DUP2 MLOAD DUP2 MSTORE PUSH1 0x20 ADD SWAP2 POP DUP1 MLOAD SWAP1 PUSH1 0x20 ADD SWAP1 DUP1 DUP4 DUP4 PUSH1 0x0 JUMPDEST DUP4 DUP2 LT ISZERO PUSH2 0x135C JUMPI DUP1 DUP3 ADD MLOAD DUP2 DUP5 ADD MSTORE PUSH1 0x20 DUP2 ADD SWAP1 POP PUSH2 0x1341 JUMP JUMPDEST POP POP POP POP SWAP1 POP SWAP1 DUP2 ADD SWAP1 PUSH1 0x1F AND DUP1 ISZERO PUSH2 0x1389 JUMPI DUP1 DUP3 SUB DUP1 MLOAD PUSH1 0x1 DUP4 PUSH1 0x20 SUB PUSH2 0x100 EXP SUB NOT AND DUP2 MSTORE PUSH1 0x20 ADD SWAP2 POP JUMPDEST POP SWAP5 POP POP POP POP POP PUSH1 0x40 MLOAD DUP1 SWAP2 SUB SWAP1 LOG1 POP POP POP JUMP JUMPDEST PUSH1 0x0 DUP1 PUSH1 0x0 DUP1 CALLER PUSH20 0xFFFFFFFFFFFFFFFFFFFFFFFFFFFFFFFFFFFFFFFF AND PUSH1 0x5 PUSH1 0x0 DUP9 DUP2 MSTORE PUSH1 0x20 ADD SWAP1 DUP2 MSTORE PUSH1 0x20 ADD PUSH1 0x0 KECCAK256 PUSH1 0x0 SWAP1 SLOAD SWAP1 PUSH2 0x100 EXP SWAP1 DIV PUSH20 0xFFFFFFFFFFFFFFFFFFFFFFFFFFFFFFFFFFFFFFFF AND PUSH20 0xFFFFFFFFFFFFFFFFFFFFFFFFFFFFFFFFFFFFFFFF AND EQ ISZERO ISZERO PUSH2 0x1410 JUMPI PUSH1 0x0 DUP1 REVERT JUMPDEST PUSH1 0x3 DUP7 DUP2 SLOAD DUP2 LT ISZERO ISZERO PUSH2 0x141F JUMPI INVALID JUMPDEST SWAP1 PUSH1 0x0 MSTORE PUSH1 0x20 PUSH1 0x0 KECCAK256 SWAP1 PUSH1 0x3 MUL ADD SWAP4 POP TIMESTAMP PUSH4 0xFFFFFFFF AND DUP5 PUSH1 0x1 ADD PUSH1 0x4 SWAP1 SLOAD SWAP1 PUSH2 0x100 EXP SWAP1 DIV PUSH4 0xFFFFFFFF AND PUSH4 0xFFFFFFFF AND GT ISZERO ISZERO ISZERO PUSH2 0x145E JUMPI PUSH1 0x0 DUP1 REVERT JUMPDEST PUSH1 0x2 SLOAD DUP6 DUP2 ISZERO ISZERO PUSH2 0x146B JUMPI INVALID JUMPDEST MOD SWAP3 POP PUSH1 0x2 DUP4 DUP6 PUSH1 0x0 ADD SLOAD ADD DUP2 ISZERO ISZERO PUSH2 0x1480 JUMPI INVALID JUMPDEST DIV SWAP2 POP PUSH1 0x63 PUSH1 0x64 DUP4 DUP2 ISZERO ISZERO PUSH2 0x1491 JUMPI INVALID JUMPDEST MOD DUP4 SUB ADD SWAP1 POP PUSH2 0x14D6 PUSH1 0x40 DUP1 MLOAD SWAP1 DUP2 ADD PUSH1 0x40 MSTORE DUP1 PUSH1 0x6 DUP2 MSTORE PUSH1 0x20 ADD PUSH32 0x4E6F2D6F6E650000000000000000000000000000000000000000000000000000 DUP2 MSTORE POP DUP3 PUSH2 0x1109 JUMP JUMPDEST PUSH1 0x4 SLOAD TIMESTAMP ADD DUP5 PUSH1 0x1 ADD PUSH1 0x4 PUSH2 0x100 EXP DUP2 SLOAD DUP2 PUSH4 0xFFFFFFFF MUL NOT AND SWAP1 DUP4 PUSH4 0xFFFFFFFF AND MUL OR SWAP1 SSTORE POP POP POP POP POP POP POP JUMP JUMPDEST PUSH1 0x4 SLOAD TIMESTAMP ADD PUSH1 0x3 DUP3 DUP2 SLOAD DUP2 LT ISZERO ISZERO PUSH2 0x1519 JUMPI INVALID JUMPDEST SWAP1 PUSH1 0x0 MSTORE PUSH1 0x20 PUSH1 0x0 KECCAK256 SWAP1 PUSH1 0x3 MUL ADD PUSH1 0x1 ADD PUSH1 0x4 PUSH2 0x100 EXP DUP2 SLOAD DUP2 PUSH4 0xFFFFFFFF MUL NOT AND SWAP1 DUP4 PUSH4 0xFFFFFFFF AND MUL OR SWAP1 SSTORE POP POP JUMP JUMPDEST PUSH1 0x0 DUP1 DUP3 PUSH1 0x40 MLOAD DUP1 DUP3 DUP2 MSTORE PUSH1 0x20 ADD SWAP2 POP POP PUSH1 0x40 MLOAD DUP1 SWAP2 SUB SWAP1 KECCAK256 PUSH1 0x1 SWAP1 DIV SWAP1 POP DUP1 SWAP2 POP POP SWAP2 SWAP1 POP JUMP JUMPDEST DUP3 DUP1 SLOAD PUSH1 0x1 DUP2 PUSH1 0x1 AND ISZERO PUSH2 0x100 MUL SUB AND PUSH1 0x2 SWAP1 DIV SWAP1 PUSH1 0x0 MSTORE PUSH1 0x20 PUSH1 0x0 KECCAK256 SWAP1 PUSH1 0x1F ADD PUSH1 0x20 SWAP1 DIV DUP2 ADD SWAP3 DUP3 PUSH1 0x1F LT PUSH2 0x15B4 JUMPI DUP1 CALLDATALOAD PUSH1 0xFF NOT AND DUP4 DUP1 ADD OR DUP6 SSTORE PUSH2 0x15E2 JUMP JUMPDEST DUP3 DUP1 ADD PUSH1 0x1 ADD DUP6 SSTORE DUP3 ISZERO PUSH2 0x15E2 JUMPI SWAP2 DUP3 ADD JUMPDEST DUP3 DUP2 GT ISZERO PUSH2 0x15E1 JUMPI DUP3 CALLDATALOAD DUP3 SSTORE SWAP2 PUSH1 0x20 ADD SWAP2 SWAP1 PUSH1 0x1 ADD SWAP1 PUSH2 0x15C6 JUMP JUMPDEST JUMPDEST POP SWAP1 POP PUSH2 0x15EF SWAP2 SWAP1 PUSH2 0x1673 JUMP JUMPDEST POP SWAP1 JUMP JUMPDEST DUP3 DUP1 SLOAD PUSH1 0x1 DUP2 PUSH1 0x1 AND ISZERO PUSH2 0x100 MUL SUB AND PUSH1 0x2 SWAP1 DIV SWAP1 PUSH1 0x0 MSTORE PUSH1 0x20 PUSH1 0x0 KECCAK256 SWAP1 PUSH1 0x1F ADD PUSH1 0x20 SWAP1 DIV DUP2 ADD SWAP3 DUP3 PUSH1 0x1F LT PUSH2 0x1634 JUMPI DUP1 MLOAD PUSH1 0xFF NOT AND DUP4 DUP1 ADD OR DUP6 SSTORE PUSH2 0x1662 JUMP JUMPDEST DUP3 DUP1 ADD PUSH1 0x1 ADD DUP6 SSTORE DUP3 ISZERO PUSH2 0x1662 JUMPI SWAP2 DUP3 ADD JUMPDEST DUP3 DUP2 GT ISZERO PUSH2 0x1661 JUMPI DUP3 MLOAD DUP3 SSTORE SWAP2 PUSH1 0x20 ADD SWAP2 SWAP1 PUSH1 0x1 ADD SWAP1 PUSH2 0x1646 JUMP JUMPDEST JUMPDEST POP SWAP1 POP PUSH2 0x166F SWAP2 SWAP1 PUSH2 0x1673 JUMP JUMPDEST POP SWAP1 JUMP JUMPDEST PUSH2 0x1695 SWAP2 SWAP1 JUMPDEST DUP1 DUP3 GT ISZERO PUSH2 0x1691 JUMPI PUSH1 0x0 DUP2 PUSH1 0x0 SWAP1 SSTORE POP PUSH1 0x1 ADD PUSH2 0x1679 JUMP JUMPDEST POP SWAP1 JUMP JUMPDEST SWAP1 JUMP STOP LOG1 PUSH6 0x627A7A723058 KECCAK256 0xa5 PUSH1 0xF 0xa7 0xdb CODESIZE SWAP11 PUSH30 0xE0BE4D49700C0476598DF82425294A591A36334BBF9D1676002900000000 "
				},
				"gasEstimates": {
					"creation": {
						"codeDepositCost": "1165600",
						"executionCost": "106749",
						"totalCost": "1272349"
					},
					"external": {
						"changeDna(uint256,uint256)": "21610",
						"changeName(uint256,string)": "infinite",
						"createRandomZombie(string)": "infinite",
						"doAttack(uint256,uint256)": "infinite",
						"feedOnHuman(uint256,uint256)": "infinite",
						"getZombiesByOwner(address)": "infinite",
						"levelUp(uint256)": "21249",
						"owner()": "618",
						"ownerZombieCount(address)": "532",
						"setLevelUpFee(uint256)": "20723",
						"transferOwnership(address)": "22829",
						"withdraw()": "infinite",
						"zombieToOwner(uint256)": "673",
						"zombies(uint256)": "infinite"
					}
				},
				"methodIdentifiers": {
					"changeDna(uint256,uint256)": "5faf2880",
					"changeName(uint256,string)": "c39cbef1",
					"createRandomZombie(string)": "7bff0a01",
					"doAttack(uint256,uint256)": "a59fde52",
					"feedOnHuman(uint256,uint256)": "ff0e4761",
					"getZombiesByOwner(address)": "4412e104",
					"levelUp(uint256)": "0ce90ec2",
					"owner()": "8da5cb5b",
					"ownerZombieCount(address)": "01afd7e1",
					"setLevelUpFee(uint256)": "ccf670f8",
					"transferOwnership(address)": "f2fde38b",
					"withdraw()": "3ccfd60b",
					"zombieToOwner(uint256)": "528b7b8f",
					"zombies(uint256)": "2052465e"
				}
			},
			"userdoc": {
				"methods": {}
			}
		}
	}
}